{
  "contractName": "SendToken",
  "abi": [
    {
      "inputs": [
        {
          "internalType": "address",
          "name": "_addr",
          "type": "address"
        }
      ],
      "stateMutability": "nonpayable",
      "type": "constructor"
    },
    {
      "inputs": [],
      "name": "to",
      "outputs": [
        {
          "internalType": "address",
          "name": "",
          "type": "address"
        }
      ],
      "stateMutability": "view",
      "type": "function",
      "constant": true
    },
    {
      "inputs": [],
      "name": "send",
      "outputs": [],
      "stateMutability": "payable",
      "type": "function",
      "payable": true
    }
  ],
  "bytecode": "0x608060405234801561001057600080fd5b506040516103c33803806103c3833981810160405281019061003291906100db565b806000806101000a81548173ffffffffffffffffffffffffffffffffffffffff021916908373ffffffffffffffffffffffffffffffffffffffff16021790555050610108565b600080fd5b600073ffffffffffffffffffffffffffffffffffffffff82169050919050565b60006100a88261007d565b9050919050565b6100b88161009d565b81146100c357600080fd5b50565b6000815190506100d5816100af565b92915050565b6000602082840312156100f1576100f0610078565b5b60006100ff848285016100c6565b91505092915050565b6102ac806101176000396000f3fe6080604052600436106100295760003560e01c8063131519811461002e578063b46300ec14610059575b600080fd5b34801561003a57600080fd5b50610043610063565b6040516100509190610198565b60405180910390f35b610061610087565b005b60008054906101000a900473ffffffffffffffffffffffffffffffffffffffff1681565b60008060009054906101000a900473ffffffffffffffffffffffffffffffffffffffff1673ffffffffffffffffffffffffffffffffffffffff16346040516100ce906101e4565b60006040518083038185875af1925050503d806000811461010b576040519150601f19603f3d011682016040523d82523d6000602084013e610110565b606091505b5050905080610154576040517f08c379a000000000000000000000000000000000000000000000000000000000815260040161014b90610256565b60405180910390fd5b50565b600073ffffffffffffffffffffffffffffffffffffffff82169050919050565b600061018282610157565b9050919050565b61019281610177565b82525050565b60006020820190506101ad6000830184610189565b92915050565b600081905092915050565b50565b60006101ce6000836101b3565b91506101d9826101be565b600082019050919050565b60006101ef826101c1565b9150819050919050565b600082825260208201905092915050565b7f5472616e7366657274206563686f756500000000000000000000000000000000600082015250565b60006102406010836101f9565b915061024b8261020a565b602082019050919050565b6000602082019050818103600083015261026f81610233565b905091905056fea2646970667358221220334687b2d5608d2d8e43630c102db9478a759df40bdcbe316896efe6c0fd80ed64736f6c63430008120033",
  "immutableReferences": {},
  "source": "// SPDX-License-Identifier: GPL-3.0\n\npragma solidity 0.8.18;\n\ncontract SendToken {\n\n    address public to;\n\n    constructor(address _addr) {\n        to = _addr;\n    }\n\n\n    function send() public payable {\n        (bool success, ) = to.call{value: msg.value }(\"\");\n        require(success, \"Transfert echoue\");\n    }\n}",
  "sourcePath": "/home/qmoreaux/Alyra/Git/4. Truffle & CI-CD/contracts/SendToken.sol",
  "compiler": {
    "name": "solc",
    "version": "0.8.18+commit.87f61d96.Emscripten.clang"
  },
  "schemaVersion": "3.4.11",
  "updatedAt": "2023-02-16T14:51:16.892Z",
  "networkType": "ethereum",
  "devdoc": {
    "kind": "dev",
    "methods": {},
    "version": 1
  },
  "userdoc": {
    "kind": "user",
    "methods": {},
    "version": 1
  }
}