{
	"contracts/5_Whitelist.sol": {
		"Whitelist": {
			"abi": [
				{
					"inputs": [],
					"stateMutability": "nonpayable",
					"type": "constructor"
				},
				{
					"anonymous": false,
					"inputs": [
						{
							"indexed": false,
							"internalType": "address",
							"name": "_adress",
							"type": "address"
						}
					],
					"name": "Authorized",
					"type": "event"
				},
				{
					"anonymous": false,
					"inputs": [
						{
							"indexed": false,
							"internalType": "address",
							"name": "_addr",
							"type": "address"
						},
						{
							"indexed": false,
							"internalType": "uint256",
							"name": "_value",
							"type": "uint256"
						}
					],
					"name": "EthReceived",
					"type": "event"
				},
				{
					"inputs": [
						{
							"internalType": "address",
							"name": "_adress",
							"type": "address"
						}
					],
					"name": "authorize",
					"outputs": [],
					"stateMutability": "nonpayable",
					"type": "function"
				}
			],
			"devdoc": {
				"kind": "dev",
				"methods": {},
				"version": 1
			},
			"evm": {
				"assembly": "    /* \"contracts/5_Whitelist.sol\":62:513  contract Whitelist {... */\n  mstore(0x40, 0x80)\n    /* \"contracts/5_Whitelist.sol\":221:280  constructor() {... */\n  callvalue\n  dup1\n  iszero\n  tag_1\n  jumpi\n  0x00\n  dup1\n  revert\ntag_1:\n  pop\n    /* \"contracts/5_Whitelist.sol\":269:273  true */\n  0x01\n    /* \"contracts/5_Whitelist.sol\":245:254  whitelist */\n  0x00\n    /* \"contracts/5_Whitelist.sol\":245:266  whitelist[msg.sender] */\n  dup1\n    /* \"contracts/5_Whitelist.sol\":255:265  msg.sender */\n  caller\n    /* \"contracts/5_Whitelist.sol\":245:266  whitelist[msg.sender] */\n  0xffffffffffffffffffffffffffffffffffffffff\n  and\n  0xffffffffffffffffffffffffffffffffffffffff\n  and\n  dup2\n  mstore\n  0x20\n  add\n  swap1\n  dup2\n  mstore\n  0x20\n  add\n  0x00\n  keccak256\n  0x00\n    /* \"contracts/5_Whitelist.sol\":245:273  whitelist[msg.sender] = true */\n  0x0100\n  exp\n  dup2\n  sload\n  dup2\n  0xff\n  mul\n  not\n  and\n  swap1\n  dup4\n  iszero\n  iszero\n  mul\n  or\n  swap1\n  sstore\n  pop\n    /* \"contracts/5_Whitelist.sol\":62:513  contract Whitelist {... */\n  dataSize(sub_0)\n  dup1\n  dataOffset(sub_0)\n  0x00\n  codecopy\n  0x00\n  return\nstop\n\nsub_0: assembly {\n        /* \"contracts/5_Whitelist.sol\":62:513  contract Whitelist {... */\n      mstore(0x40, 0x80)\n      callvalue\n      dup1\n      iszero\n      tag_1\n      jumpi\n      0x00\n      dup1\n      revert\n    tag_1:\n      pop\n      jumpi(tag_2, lt(calldatasize, 0x04))\n      shr(0xe0, calldataload(0x00))\n      dup1\n      0xb6a5d7de\n      eq\n      tag_3\n      jumpi\n    tag_2:\n      0x00\n      dup1\n      revert\n        /* \"contracts/5_Whitelist.sol\":386:511  function authorize(address _adress) public check {... */\n    tag_3:\n      tag_4\n      0x04\n      dup1\n      calldatasize\n      sub\n      dup2\n      add\n      swap1\n      tag_5\n      swap2\n      swap1\n      tag_6\n      jump\t// in\n    tag_5:\n      tag_7\n      jump\t// in\n    tag_4:\n      stop\n    tag_7:\n        /* \"contracts/5_Whitelist.sol\":321:330  whitelist */\n      0x00\n        /* \"contracts/5_Whitelist.sol\":321:342  whitelist[msg.sender] */\n      dup1\n        /* \"contracts/5_Whitelist.sol\":331:341  msg.sender */\n      caller\n        /* \"contracts/5_Whitelist.sol\":321:342  whitelist[msg.sender] */\n      0xffffffffffffffffffffffffffffffffffffffff\n      and\n      0xffffffffffffffffffffffffffffffffffffffff\n      and\n      dup2\n      mstore\n      0x20\n      add\n      swap1\n      dup2\n      mstore\n      0x20\n      add\n      0x00\n      keccak256\n      0x00\n      swap1\n      sload\n      swap1\n      0x0100\n      exp\n      swap1\n      div\n      0xff\n      and\n        /* \"contracts/5_Whitelist.sol\":313:362  require(whitelist[msg.sender], \"Not whitelisted\") */\n      tag_9\n      jumpi\n      mload(0x40)\n      0x08c379a000000000000000000000000000000000000000000000000000000000\n      dup2\n      mstore\n      0x04\n      add\n      tag_10\n      swap1\n      tag_11\n      jump\t// in\n    tag_10:\n      mload(0x40)\n      dup1\n      swap2\n      sub\n      swap1\n      revert\n    tag_9:\n        /* \"contracts/5_Whitelist.sol\":466:470  true */\n      0x01\n        /* \"contracts/5_Whitelist.sol\":445:454  whitelist */\n      0x00\n        /* \"contracts/5_Whitelist.sol\":445:463  whitelist[_adress] */\n      dup1\n        /* \"contracts/5_Whitelist.sol\":455:462  _adress */\n      dup4\n        /* \"contracts/5_Whitelist.sol\":445:463  whitelist[_adress] */\n      0xffffffffffffffffffffffffffffffffffffffff\n      and\n      0xffffffffffffffffffffffffffffffffffffffff\n      and\n      dup2\n      mstore\n      0x20\n      add\n      swap1\n      dup2\n      mstore\n      0x20\n      add\n      0x00\n      keccak256\n      0x00\n        /* \"contracts/5_Whitelist.sol\":445:470  whitelist[_adress] = true */\n      0x0100\n      exp\n      dup2\n      sload\n      dup2\n      0xff\n      mul\n      not\n      and\n      swap1\n      dup4\n      iszero\n      iszero\n      mul\n      or\n      swap1\n      sstore\n      pop\n        /* \"contracts/5_Whitelist.sol\":485:504  Authorized(_adress) */\n      0xdc84e3a4c83602050e3865df792a4e6800211a79ac60db94e703a820ce892924\n        /* \"contracts/5_Whitelist.sol\":496:503  _adress */\n      dup2\n        /* \"contracts/5_Whitelist.sol\":485:504  Authorized(_adress) */\n      mload(0x40)\n      tag_13\n      swap2\n      swap1\n      tag_14\n      jump\t// in\n    tag_13:\n      mload(0x40)\n      dup1\n      swap2\n      sub\n      swap1\n      log1\n        /* \"contracts/5_Whitelist.sol\":386:511  function authorize(address _adress) public check {... */\n      pop\n      jump\t// out\n        /* \"#utility.yul\":88:205   */\n    tag_16:\n        /* \"#utility.yul\":197:198   */\n      0x00\n        /* \"#utility.yul\":194:195   */\n      dup1\n        /* \"#utility.yul\":187:199   */\n      revert\n        /* \"#utility.yul\":334:460   */\n    tag_18:\n        /* \"#utility.yul\":371:378   */\n      0x00\n        /* \"#utility.yul\":411:453   */\n      0xffffffffffffffffffffffffffffffffffffffff\n        /* \"#utility.yul\":404:409   */\n      dup3\n        /* \"#utility.yul\":400:454   */\n      and\n        /* \"#utility.yul\":389:454   */\n      swap1\n      pop\n        /* \"#utility.yul\":334:460   */\n      swap2\n      swap1\n      pop\n      jump\t// out\n        /* \"#utility.yul\":466:562   */\n    tag_19:\n        /* \"#utility.yul\":503:510   */\n      0x00\n        /* \"#utility.yul\":532:556   */\n      tag_32\n        /* \"#utility.yul\":550:555   */\n      dup3\n        /* \"#utility.yul\":532:556   */\n      tag_18\n      jump\t// in\n    tag_32:\n        /* \"#utility.yul\":521:556   */\n      swap1\n      pop\n        /* \"#utility.yul\":466:562   */\n      swap2\n      swap1\n      pop\n      jump\t// out\n        /* \"#utility.yul\":568:690   */\n    tag_20:\n        /* \"#utility.yul\":641:665   */\n      tag_34\n        /* \"#utility.yul\":659:664   */\n      dup2\n        /* \"#utility.yul\":641:665   */\n      tag_19\n      jump\t// in\n    tag_34:\n        /* \"#utility.yul\":634:639   */\n      dup2\n        /* \"#utility.yul\":631:666   */\n      eq\n        /* \"#utility.yul\":621:684   */\n      tag_35\n      jumpi\n        /* \"#utility.yul\":680:681   */\n      0x00\n        /* \"#utility.yul\":677:678   */\n      dup1\n        /* \"#utility.yul\":670:682   */\n      revert\n        /* \"#utility.yul\":621:684   */\n    tag_35:\n        /* \"#utility.yul\":568:690   */\n      pop\n      jump\t// out\n        /* \"#utility.yul\":696:835   */\n    tag_21:\n        /* \"#utility.yul\":742:747   */\n      0x00\n        /* \"#utility.yul\":780:786   */\n      dup2\n        /* \"#utility.yul\":767:787   */\n      calldataload\n        /* \"#utility.yul\":758:787   */\n      swap1\n      pop\n        /* \"#utility.yul\":796:829   */\n      tag_37\n        /* \"#utility.yul\":823:828   */\n      dup2\n        /* \"#utility.yul\":796:829   */\n      tag_20\n      jump\t// in\n    tag_37:\n        /* \"#utility.yul\":696:835   */\n      swap3\n      swap2\n      pop\n      pop\n      jump\t// out\n        /* \"#utility.yul\":841:1170   */\n    tag_6:\n        /* \"#utility.yul\":900:906   */\n      0x00\n        /* \"#utility.yul\":949:951   */\n      0x20\n        /* \"#utility.yul\":937:946   */\n      dup3\n        /* \"#utility.yul\":928:935   */\n      dup5\n        /* \"#utility.yul\":924:947   */\n      sub\n        /* \"#utility.yul\":920:952   */\n      slt\n        /* \"#utility.yul\":917:1036   */\n      iszero\n      tag_39\n      jumpi\n        /* \"#utility.yul\":955:1034   */\n      tag_40\n      tag_16\n      jump\t// in\n    tag_40:\n        /* \"#utility.yul\":917:1036   */\n    tag_39:\n        /* \"#utility.yul\":1075:1076   */\n      0x00\n        /* \"#utility.yul\":1100:1153   */\n      tag_41\n        /* \"#utility.yul\":1145:1152   */\n      dup5\n        /* \"#utility.yul\":1136:1142   */\n      dup3\n        /* \"#utility.yul\":1125:1134   */\n      dup6\n        /* \"#utility.yul\":1121:1143   */\n      add\n        /* \"#utility.yul\":1100:1153   */\n      tag_21\n      jump\t// in\n    tag_41:\n        /* \"#utility.yul\":1090:1153   */\n      swap2\n      pop\n        /* \"#utility.yul\":1046:1163   */\n      pop\n        /* \"#utility.yul\":841:1170   */\n      swap3\n      swap2\n      pop\n      pop\n      jump\t// out\n        /* \"#utility.yul\":1176:1345   */\n    tag_22:\n        /* \"#utility.yul\":1260:1271   */\n      0x00\n        /* \"#utility.yul\":1294:1300   */\n      dup3\n        /* \"#utility.yul\":1289:1292   */\n      dup3\n        /* \"#utility.yul\":1282:1301   */\n      mstore\n        /* \"#utility.yul\":1334:1338   */\n      0x20\n        /* \"#utility.yul\":1329:1332   */\n      dup3\n        /* \"#utility.yul\":1325:1339   */\n      add\n        /* \"#utility.yul\":1310:1339   */\n      swap1\n      pop\n        /* \"#utility.yul\":1176:1345   */\n      swap3\n      swap2\n      pop\n      pop\n      jump\t// out\n        /* \"#utility.yul\":1351:1516   */\n    tag_23:\n        /* \"#utility.yul\":1491:1508   */\n      0x4e6f742077686974656c69737465640000000000000000000000000000000000\n        /* \"#utility.yul\":1487:1488   */\n      0x00\n        /* \"#utility.yul\":1479:1485   */\n      dup3\n        /* \"#utility.yul\":1475:1489   */\n      add\n        /* \"#utility.yul\":1468:1509   */\n      mstore\n        /* \"#utility.yul\":1351:1516   */\n      pop\n      jump\t// out\n        /* \"#utility.yul\":1522:1888   */\n    tag_24:\n        /* \"#utility.yul\":1664:1667   */\n      0x00\n        /* \"#utility.yul\":1685:1752   */\n      tag_45\n        /* \"#utility.yul\":1749:1751   */\n      0x0f\n        /* \"#utility.yul\":1744:1747   */\n      dup4\n        /* \"#utility.yul\":1685:1752   */\n      tag_22\n      jump\t// in\n    tag_45:\n        /* \"#utility.yul\":1678:1752   */\n      swap2\n      pop\n        /* \"#utility.yul\":1761:1854   */\n      tag_46\n        /* \"#utility.yul\":1850:1853   */\n      dup3\n        /* \"#utility.yul\":1761:1854   */\n      tag_23\n      jump\t// in\n    tag_46:\n        /* \"#utility.yul\":1879:1881   */\n      0x20\n        /* \"#utility.yul\":1874:1877   */\n      dup3\n        /* \"#utility.yul\":1870:1882   */\n      add\n        /* \"#utility.yul\":1863:1882   */\n      swap1\n      pop\n        /* \"#utility.yul\":1522:1888   */\n      swap2\n      swap1\n      pop\n      jump\t// out\n        /* \"#utility.yul\":1894:2313   */\n    tag_11:\n        /* \"#utility.yul\":2060:2064   */\n      0x00\n        /* \"#utility.yul\":2098:2100   */\n      0x20\n        /* \"#utility.yul\":2087:2096   */\n      dup3\n        /* \"#utility.yul\":2083:2101   */\n      add\n        /* \"#utility.yul\":2075:2101   */\n      swap1\n      pop\n        /* \"#utility.yul\":2147:2156   */\n      dup2\n        /* \"#utility.yul\":2141:2145   */\n      dup2\n        /* \"#utility.yul\":2137:2157   */\n      sub\n        /* \"#utility.yul\":2133:2134   */\n      0x00\n        /* \"#utility.yul\":2122:2131   */\n      dup4\n        /* \"#utility.yul\":2118:2135   */\n      add\n        /* \"#utility.yul\":2111:2158   */\n      mstore\n        /* \"#utility.yul\":2175:2306   */\n      tag_48\n        /* \"#utility.yul\":2301:2305   */\n      dup2\n        /* \"#utility.yul\":2175:2306   */\n      tag_24\n      jump\t// in\n    tag_48:\n        /* \"#utility.yul\":2167:2306   */\n      swap1\n      pop\n        /* \"#utility.yul\":1894:2313   */\n      swap2\n      swap1\n      pop\n      jump\t// out\n        /* \"#utility.yul\":2319:2437   */\n    tag_25:\n        /* \"#utility.yul\":2406:2430   */\n      tag_50\n        /* \"#utility.yul\":2424:2429   */\n      dup2\n        /* \"#utility.yul\":2406:2430   */\n      tag_19\n      jump\t// in\n    tag_50:\n        /* \"#utility.yul\":2401:2404   */\n      dup3\n        /* \"#utility.yul\":2394:2431   */\n      mstore\n        /* \"#utility.yul\":2319:2437   */\n      pop\n      pop\n      jump\t// out\n        /* \"#utility.yul\":2443:2665   */\n    tag_14:\n        /* \"#utility.yul\":2536:2540   */\n      0x00\n        /* \"#utility.yul\":2574:2576   */\n      0x20\n        /* \"#utility.yul\":2563:2572   */\n      dup3\n        /* \"#utility.yul\":2559:2577   */\n      add\n        /* \"#utility.yul\":2551:2577   */\n      swap1\n      pop\n        /* \"#utility.yul\":2587:2658   */\n      tag_52\n        /* \"#utility.yul\":2655:2656   */\n      0x00\n        /* \"#utility.yul\":2644:2653   */\n      dup4\n        /* \"#utility.yul\":2640:2657   */\n      add\n        /* \"#utility.yul\":2631:2637   */\n      dup5\n        /* \"#utility.yul\":2587:2658   */\n      tag_25\n      jump\t// in\n    tag_52:\n        /* \"#utility.yul\":2443:2665   */\n      swap3\n      swap2\n      pop\n      pop\n      jump\t// out\n\n    auxdata: 0xa264697066735822122075908a8888472c87b3f084c52f944a739f5a78811364e13db0ff892bf6c7a42564736f6c634300080d0033\n}\n",
				"bytecode": {
					"linkReferences": {},
					"object": "608060405234801561001057600080fd5b5060016000803373ffffffffffffffffffffffffffffffffffffffff1673ffffffffffffffffffffffffffffffffffffffff16815260200190815260200160002060006101000a81548160ff0219169083151502179055506102d5806100776000396000f3fe608060405234801561001057600080fd5b506004361061002b5760003560e01c8063b6a5d7de14610030575b600080fd5b61004a600480360381019061004591906101cb565b61004c565b005b6000803373ffffffffffffffffffffffffffffffffffffffff1673ffffffffffffffffffffffffffffffffffffffff16815260200190815260200160002060009054906101000a900460ff166100d7576040517f08c379a00000000000000000000000000000000000000000000000000000000081526004016100ce90610255565b60405180910390fd5b60016000808373ffffffffffffffffffffffffffffffffffffffff1673ffffffffffffffffffffffffffffffffffffffff16815260200190815260200160002060006101000a81548160ff0219169083151502179055507fdc84e3a4c83602050e3865df792a4e6800211a79ac60db94e703a820ce8929248160405161015d9190610284565b60405180910390a150565b600080fd5b600073ffffffffffffffffffffffffffffffffffffffff82169050919050565b60006101988261016d565b9050919050565b6101a88161018d565b81146101b357600080fd5b50565b6000813590506101c58161019f565b92915050565b6000602082840312156101e1576101e0610168565b5b60006101ef848285016101b6565b91505092915050565b600082825260208201905092915050565b7f4e6f742077686974656c69737465640000000000000000000000000000000000600082015250565b600061023f600f836101f8565b915061024a82610209565b602082019050919050565b6000602082019050818103600083015261026e81610232565b9050919050565b61027e8161018d565b82525050565b60006020820190506102996000830184610275565b9291505056fea264697066735822122075908a8888472c87b3f084c52f944a739f5a78811364e13db0ff892bf6c7a42564736f6c634300080d0033",
					"opcodes": "PUSH1 0x80 PUSH1 0x40 MSTORE CALLVALUE DUP1 ISZERO PUSH2 0x10 JUMPI PUSH1 0x0 DUP1 REVERT JUMPDEST POP PUSH1 0x1 PUSH1 0x0 DUP1 CALLER PUSH20 0xFFFFFFFFFFFFFFFFFFFFFFFFFFFFFFFFFFFFFFFF AND PUSH20 0xFFFFFFFFFFFFFFFFFFFFFFFFFFFFFFFFFFFFFFFF AND DUP2 MSTORE PUSH1 0x20 ADD SWAP1 DUP2 MSTORE PUSH1 0x20 ADD PUSH1 0x0 KECCAK256 PUSH1 0x0 PUSH2 0x100 EXP DUP2 SLOAD DUP2 PUSH1 0xFF MUL NOT AND SWAP1 DUP4 ISZERO ISZERO MUL OR SWAP1 SSTORE POP PUSH2 0x2D5 DUP1 PUSH2 0x77 PUSH1 0x0 CODECOPY PUSH1 0x0 RETURN INVALID PUSH1 0x80 PUSH1 0x40 MSTORE CALLVALUE DUP1 ISZERO PUSH2 0x10 JUMPI PUSH1 0x0 DUP1 REVERT JUMPDEST POP PUSH1 0x4 CALLDATASIZE LT PUSH2 0x2B JUMPI PUSH1 0x0 CALLDATALOAD PUSH1 0xE0 SHR DUP1 PUSH4 0xB6A5D7DE EQ PUSH2 0x30 JUMPI JUMPDEST PUSH1 0x0 DUP1 REVERT JUMPDEST PUSH2 0x4A PUSH1 0x4 DUP1 CALLDATASIZE SUB DUP2 ADD SWAP1 PUSH2 0x45 SWAP2 SWAP1 PUSH2 0x1CB JUMP JUMPDEST PUSH2 0x4C JUMP JUMPDEST STOP JUMPDEST PUSH1 0x0 DUP1 CALLER PUSH20 0xFFFFFFFFFFFFFFFFFFFFFFFFFFFFFFFFFFFFFFFF AND PUSH20 0xFFFFFFFFFFFFFFFFFFFFFFFFFFFFFFFFFFFFFFFF AND DUP2 MSTORE PUSH1 0x20 ADD SWAP1 DUP2 MSTORE PUSH1 0x20 ADD PUSH1 0x0 KECCAK256 PUSH1 0x0 SWAP1 SLOAD SWAP1 PUSH2 0x100 EXP SWAP1 DIV PUSH1 0xFF AND PUSH2 0xD7 JUMPI PUSH1 0x40 MLOAD PUSH32 0x8C379A000000000000000000000000000000000000000000000000000000000 DUP2 MSTORE PUSH1 0x4 ADD PUSH2 0xCE SWAP1 PUSH2 0x255 JUMP JUMPDEST PUSH1 0x40 MLOAD DUP1 SWAP2 SUB SWAP1 REVERT JUMPDEST PUSH1 0x1 PUSH1 0x0 DUP1 DUP4 PUSH20 0xFFFFFFFFFFFFFFFFFFFFFFFFFFFFFFFFFFFFFFFF AND PUSH20 0xFFFFFFFFFFFFFFFFFFFFFFFFFFFFFFFFFFFFFFFF AND DUP2 MSTORE PUSH1 0x20 ADD SWAP1 DUP2 MSTORE PUSH1 0x20 ADD PUSH1 0x0 KECCAK256 PUSH1 0x0 PUSH2 0x100 EXP DUP2 SLOAD DUP2 PUSH1 0xFF MUL NOT AND SWAP1 DUP4 ISZERO ISZERO MUL OR SWAP1 SSTORE POP PUSH32 0xDC84E3A4C83602050E3865DF792A4E6800211A79AC60DB94E703A820CE892924 DUP2 PUSH1 0x40 MLOAD PUSH2 0x15D SWAP2 SWAP1 PUSH2 0x284 JUMP JUMPDEST PUSH1 0x40 MLOAD DUP1 SWAP2 SUB SWAP1 LOG1 POP JUMP JUMPDEST PUSH1 0x0 DUP1 REVERT JUMPDEST PUSH1 0x0 PUSH20 0xFFFFFFFFFFFFFFFFFFFFFFFFFFFFFFFFFFFFFFFF DUP3 AND SWAP1 POP SWAP2 SWAP1 POP JUMP JUMPDEST PUSH1 0x0 PUSH2 0x198 DUP3 PUSH2 0x16D JUMP JUMPDEST SWAP1 POP SWAP2 SWAP1 POP JUMP JUMPDEST PUSH2 0x1A8 DUP2 PUSH2 0x18D JUMP JUMPDEST DUP2 EQ PUSH2 0x1B3 JUMPI PUSH1 0x0 DUP1 REVERT JUMPDEST POP JUMP JUMPDEST PUSH1 0x0 DUP2 CALLDATALOAD SWAP1 POP PUSH2 0x1C5 DUP2 PUSH2 0x19F JUMP JUMPDEST SWAP3 SWAP2 POP POP JUMP JUMPDEST PUSH1 0x0 PUSH1 0x20 DUP3 DUP5 SUB SLT ISZERO PUSH2 0x1E1 JUMPI PUSH2 0x1E0 PUSH2 0x168 JUMP JUMPDEST JUMPDEST PUSH1 0x0 PUSH2 0x1EF DUP5 DUP3 DUP6 ADD PUSH2 0x1B6 JUMP JUMPDEST SWAP2 POP POP SWAP3 SWAP2 POP POP JUMP JUMPDEST PUSH1 0x0 DUP3 DUP3 MSTORE PUSH1 0x20 DUP3 ADD SWAP1 POP SWAP3 SWAP2 POP POP JUMP JUMPDEST PUSH32 0x4E6F742077686974656C69737465640000000000000000000000000000000000 PUSH1 0x0 DUP3 ADD MSTORE POP JUMP JUMPDEST PUSH1 0x0 PUSH2 0x23F PUSH1 0xF DUP4 PUSH2 0x1F8 JUMP JUMPDEST SWAP2 POP PUSH2 0x24A DUP3 PUSH2 0x209 JUMP JUMPDEST PUSH1 0x20 DUP3 ADD SWAP1 POP SWAP2 SWAP1 POP JUMP JUMPDEST PUSH1 0x0 PUSH1 0x20 DUP3 ADD SWAP1 POP DUP2 DUP2 SUB PUSH1 0x0 DUP4 ADD MSTORE PUSH2 0x26E DUP2 PUSH2 0x232 JUMP JUMPDEST SWAP1 POP SWAP2 SWAP1 POP JUMP JUMPDEST PUSH2 0x27E DUP2 PUSH2 0x18D JUMP JUMPDEST DUP3 MSTORE POP POP JUMP JUMPDEST PUSH1 0x0 PUSH1 0x20 DUP3 ADD SWAP1 POP PUSH2 0x299 PUSH1 0x0 DUP4 ADD DUP5 PUSH2 0x275 JUMP JUMPDEST SWAP3 SWAP2 POP POP JUMP INVALID LOG2 PUSH5 0x6970667358 0x22 SLT KECCAK256 PUSH22 0x908A8888472C87B3F084C52F944A739F5A78811364E1 RETURNDATASIZE 0xB0 SELFDESTRUCT DUP10 0x2B 0xF6 0xC7 LOG4 0x25 PUSH5 0x736F6C6343 STOP ADDMOD 0xD STOP CALLER "
				},
				"gasEstimates": {
					"creation": {
						"codeDepositCost": "145000",
						"executionCost": "24546",
						"totalCost": "169546"
					},
					"external": {
						"authorize(address)": "infinite"
					}
				},
				"methodIdentifiers": {
					"authorize(address)": "b6a5d7de"
				}
			},
			"storageLayout": {
				"storage": [
					{
						"astId": 15,
						"contract": "contracts/5_Whitelist.sol:Whitelist",
						"label": "whitelist",
						"offset": 0,
						"slot": "0",
						"type": "t_mapping(t_address,t_bool)"
					}
				],
				"types": {
					"t_address": {
						"encoding": "inplace",
						"label": "address",
						"numberOfBytes": "20"
					},
					"t_bool": {
						"encoding": "inplace",
						"label": "bool",
						"numberOfBytes": "1"
					},
					"t_mapping(t_address,t_bool)": {
						"encoding": "mapping",
						"key": "t_address",
						"label": "mapping(address => bool)",
						"numberOfBytes": "32",
						"value": "t_bool"
					}
				}
			},
			"userdoc": {
				"kind": "user",
				"methods": {},
				"version": 1
			}
		}
	}
}