{
	"contracts/Admin.sol": {
		"Admin": {
			"abi": [
				{
					"anonymous": false,
					"inputs": [
						{
							"indexed": false,
							"internalType": "address",
							"name": "",
							"type": "address"
						}
					],
					"name": "Blacklisted",
					"type": "event"
				},
				{
					"anonymous": false,
					"inputs": [
						{
							"indexed": true,
							"internalType": "address",
							"name": "previousOwner",
							"type": "address"
						},
						{
							"indexed": true,
							"internalType": "address",
							"name": "newOwner",
							"type": "address"
						}
					],
					"name": "OwnershipTransferred",
					"type": "event"
				},
				{
					"anonymous": false,
					"inputs": [
						{
							"indexed": false,
							"internalType": "address",
							"name": "",
							"type": "address"
						}
					],
					"name": "Whitelisted",
					"type": "event"
				},
				{
					"inputs": [
						{
							"internalType": "address",
							"name": "_address",
							"type": "address"
						}
					],
					"name": "blacklist",
					"outputs": [],
					"stateMutability": "nonpayable",
					"type": "function"
				},
				{
					"inputs": [
						{
							"internalType": "address",
							"name": "_address",
							"type": "address"
						}
					],
					"name": "isBlackListed",
					"outputs": [
						{
							"internalType": "bool",
							"name": "",
							"type": "bool"
						}
					],
					"stateMutability": "view",
					"type": "function"
				},
				{
					"inputs": [
						{
							"internalType": "address",
							"name": "_address",
							"type": "address"
						}
					],
					"name": "isWhitelisted",
					"outputs": [
						{
							"internalType": "bool",
							"name": "",
							"type": "bool"
						}
					],
					"stateMutability": "view",
					"type": "function"
				},
				{
					"inputs": [],
					"name": "owner",
					"outputs": [
						{
							"internalType": "address",
							"name": "",
							"type": "address"
						}
					],
					"stateMutability": "view",
					"type": "function"
				},
				{
					"inputs": [],
					"name": "renounceOwnership",
					"outputs": [],
					"stateMutability": "nonpayable",
					"type": "function"
				},
				{
					"inputs": [
						{
							"internalType": "address",
							"name": "newOwner",
							"type": "address"
						}
					],
					"name": "transferOwnership",
					"outputs": [],
					"stateMutability": "nonpayable",
					"type": "function"
				},
				{
					"inputs": [
						{
							"internalType": "address",
							"name": "_address",
							"type": "address"
						}
					],
					"name": "whitelist",
					"outputs": [],
					"stateMutability": "nonpayable",
					"type": "function"
				}
			],
			"devdoc": {
				"kind": "dev",
				"methods": {
					"owner()": {
						"details": "Returns the address of the current owner."
					},
					"renounceOwnership()": {
						"details": "Leaves the contract without owner. It will not be possible to call `onlyOwner` functions anymore. Can only be called by the current owner. NOTE: Renouncing ownership will leave the contract without an owner, thereby removing any functionality that is only available to the owner."
					},
					"transferOwnership(address)": {
						"details": "Transfers ownership of the contract to a new account (`newOwner`). Can only be called by the current owner."
					}
				},
				"version": 1
			},
			"evm": {
				"assembly": "    /* \"contracts/Admin.sol\":117:1107  contract Admin is Ownable {... */\n  mstore(0x40, 0x80)\n  callvalue\n  dup1\n  iszero\n  tag_1\n  jumpi\n  0x00\n  dup1\n  revert\ntag_1:\n  pop\n    /* \"@openzeppelin/contracts/access/Ownable.sol\":936:968  _transferOwnership(_msgSender()) */\n  tag_4\n    /* \"@openzeppelin/contracts/access/Ownable.sol\":955:967  _msgSender() */\n  tag_5\n    /* \"@openzeppelin/contracts/access/Ownable.sol\":955:965  _msgSender */\n  shl(0x20, tag_6)\n    /* \"@openzeppelin/contracts/access/Ownable.sol\":955:967  _msgSender() */\n  0x20\n  shr\n  jump\t// in\ntag_5:\n    /* \"@openzeppelin/contracts/access/Ownable.sol\":936:954  _transferOwnership */\n  shl(0x20, tag_7)\n    /* \"@openzeppelin/contracts/access/Ownable.sol\":936:968  _transferOwnership(_msgSender()) */\n  0x20\n  shr\n  jump\t// in\ntag_4:\n    /* \"contracts/Admin.sol\":117:1107  contract Admin is Ownable {... */\n  jump(tag_8)\n    /* \"@openzeppelin/contracts/utils/Context.sol\":640:736  function _msgSender() internal view virtual returns (address) {... */\ntag_6:\n    /* \"@openzeppelin/contracts/utils/Context.sol\":693:700  address */\n  0x00\n    /* \"@openzeppelin/contracts/utils/Context.sol\":719:729  msg.sender */\n  caller\n    /* \"@openzeppelin/contracts/utils/Context.sol\":712:729  return msg.sender */\n  swap1\n  pop\n    /* \"@openzeppelin/contracts/utils/Context.sol\":640:736  function _msgSender() internal view virtual returns (address) {... */\n  swap1\n  jump\t// out\n    /* \"@openzeppelin/contracts/access/Ownable.sol\":2433:2620  function _transferOwnership(address newOwner) internal virtual {... */\ntag_7:\n    /* \"@openzeppelin/contracts/access/Ownable.sol\":2506:2522  address oldOwner */\n  0x00\n    /* \"@openzeppelin/contracts/access/Ownable.sol\":2525:2531  _owner */\n  dup1\n  0x00\n  swap1\n  sload\n  swap1\n  0x0100\n  exp\n  swap1\n  div\n  0xffffffffffffffffffffffffffffffffffffffff\n  and\n    /* \"@openzeppelin/contracts/access/Ownable.sol\":2506:2531  address oldOwner = _owner */\n  swap1\n  pop\n    /* \"@openzeppelin/contracts/access/Ownable.sol\":2550:2558  newOwner */\n  dup2\n    /* \"@openzeppelin/contracts/access/Ownable.sol\":2541:2547  _owner */\n  0x00\n  dup1\n    /* \"@openzeppelin/contracts/access/Ownable.sol\":2541:2558  _owner = newOwner */\n  0x0100\n  exp\n  dup2\n  sload\n  dup2\n  0xffffffffffffffffffffffffffffffffffffffff\n  mul\n  not\n  and\n  swap1\n  dup4\n  0xffffffffffffffffffffffffffffffffffffffff\n  and\n  mul\n  or\n  swap1\n  sstore\n  pop\n    /* \"@openzeppelin/contracts/access/Ownable.sol\":2604:2612  newOwner */\n  dup2\n    /* \"@openzeppelin/contracts/access/Ownable.sol\":2573:2613  OwnershipTransferred(oldOwner, newOwner) */\n  0xffffffffffffffffffffffffffffffffffffffff\n  and\n    /* \"@openzeppelin/contracts/access/Ownable.sol\":2594:2602  oldOwner */\n  dup2\n    /* \"@openzeppelin/contracts/access/Ownable.sol\":2573:2613  OwnershipTransferred(oldOwner, newOwner) */\n  0xffffffffffffffffffffffffffffffffffffffff\n  and\n  0x8be0079c531659141344cd1fd0a4f28419497f9722a3daafe3b4186f6b6457e0\n  mload(0x40)\n  mload(0x40)\n  dup1\n  swap2\n  sub\n  swap1\n  log3\n    /* \"@openzeppelin/contracts/access/Ownable.sol\":2496:2620  {... */\n  pop\n    /* \"@openzeppelin/contracts/access/Ownable.sol\":2433:2620  function _transferOwnership(address newOwner) internal virtual {... */\n  pop\n  jump\t// out\n    /* \"contracts/Admin.sol\":117:1107  contract Admin is Ownable {... */\ntag_8:\n  dataSize(sub_0)\n  dup1\n  dataOffset(sub_0)\n  0x00\n  codecopy\n  0x00\n  return\nstop\n\nsub_0: assembly {\n        /* \"contracts/Admin.sol\":117:1107  contract Admin is Ownable {... */\n      mstore(0x40, 0x80)\n      callvalue\n      dup1\n      iszero\n      tag_1\n      jumpi\n      0x00\n      dup1\n      revert\n    tag_1:\n      pop\n      jumpi(tag_2, lt(calldatasize, 0x04))\n      shr(0xe0, calldataload(0x00))\n      dup1\n      0x9b19251a\n      gt\n      tag_10\n      jumpi\n      dup1\n      0x9b19251a\n      eq\n      tag_6\n      jumpi\n      dup1\n      0xe47d6060\n      eq\n      tag_7\n      jumpi\n      dup1\n      0xf2fde38b\n      eq\n      tag_8\n      jumpi\n      dup1\n      0xf9f92be4\n      eq\n      tag_9\n      jumpi\n      jump(tag_2)\n    tag_10:\n      dup1\n      0x3af32abf\n      eq\n      tag_3\n      jumpi\n      dup1\n      0x715018a6\n      eq\n      tag_4\n      jumpi\n      dup1\n      0x8da5cb5b\n      eq\n      tag_5\n      jumpi\n    tag_2:\n      0x00\n      dup1\n      revert\n        /* \"contracts/Admin.sol\":874:986  function isWhitelisted(address _address) public view returns (bool) {... */\n    tag_3:\n      tag_11\n      0x04\n      dup1\n      calldatasize\n      sub\n      dup2\n      add\n      swap1\n      tag_12\n      swap2\n      swap1\n      tag_13\n      jump\t// in\n    tag_12:\n      tag_14\n      jump\t// in\n    tag_11:\n      mload(0x40)\n      tag_15\n      swap2\n      swap1\n      tag_16\n      jump\t// in\n    tag_15:\n      mload(0x40)\n      dup1\n      swap2\n      sub\n      swap1\n      return\n        /* \"@openzeppelin/contracts/access/Ownable.sol\":1831:1932  function renounceOwnership() public virtual onlyOwner {... */\n    tag_4:\n      tag_17\n      tag_18\n      jump\t// in\n    tag_17:\n      stop\n        /* \"@openzeppelin/contracts/access/Ownable.sol\":1201:1286  function owner() public view virtual returns (address) {... */\n    tag_5:\n      tag_19\n      tag_20\n      jump\t// in\n    tag_19:\n      mload(0x40)\n      tag_21\n      swap2\n      swap1\n      tag_22\n      jump\t// in\n    tag_21:\n      mload(0x40)\n      dup1\n      swap2\n      sub\n      swap1\n      return\n        /* \"contracts/Admin.sol\":298:580  function whitelist(address _address) public onlyOwner {... */\n    tag_6:\n      tag_23\n      0x04\n      dup1\n      calldatasize\n      sub\n      dup2\n      add\n      swap1\n      tag_24\n      swap2\n      swap1\n      tag_13\n      jump\t// in\n    tag_24:\n      tag_25\n      jump\t// in\n    tag_23:\n      stop\n        /* \"contracts/Admin.sol\":992:1104  function isBlackListed(address _address) public view returns (bool) {... */\n    tag_7:\n      tag_26\n      0x04\n      dup1\n      calldatasize\n      sub\n      dup2\n      add\n      swap1\n      tag_27\n      swap2\n      swap1\n      tag_13\n      jump\t// in\n    tag_27:\n      tag_28\n      jump\t// in\n    tag_26:\n      mload(0x40)\n      tag_29\n      swap2\n      swap1\n      tag_16\n      jump\t// in\n    tag_29:\n      mload(0x40)\n      dup1\n      swap2\n      sub\n      swap1\n      return\n        /* \"@openzeppelin/contracts/access/Ownable.sol\":2081:2279  function transferOwnership(address newOwner) public virtual onlyOwner {... */\n    tag_8:\n      tag_30\n      0x04\n      dup1\n      calldatasize\n      sub\n      dup2\n      add\n      swap1\n      tag_31\n      swap2\n      swap1\n      tag_13\n      jump\t// in\n    tag_31:\n      tag_32\n      jump\t// in\n    tag_30:\n      stop\n        /* \"contracts/Admin.sol\":586:868  function blacklist(address _address) public onlyOwner {... */\n    tag_9:\n      tag_33\n      0x04\n      dup1\n      calldatasize\n      sub\n      dup2\n      add\n      swap1\n      tag_34\n      swap2\n      swap1\n      tag_13\n      jump\t// in\n    tag_34:\n      tag_35\n      jump\t// in\n    tag_33:\n      stop\n        /* \"contracts/Admin.sol\":874:986  function isWhitelisted(address _address) public view returns (bool) {... */\n    tag_14:\n        /* \"contracts/Admin.sol\":936:940  bool */\n      0x00\n        /* \"contracts/Admin.sol\":959:969  _whitelist */\n      0x01\n        /* \"contracts/Admin.sol\":959:979  _whitelist[_address] */\n      0x00\n        /* \"contracts/Admin.sol\":970:978  _address */\n      dup4\n        /* \"contracts/Admin.sol\":959:979  _whitelist[_address] */\n      0xffffffffffffffffffffffffffffffffffffffff\n      and\n      0xffffffffffffffffffffffffffffffffffffffff\n      and\n      dup2\n      mstore\n      0x20\n      add\n      swap1\n      dup2\n      mstore\n      0x20\n      add\n      0x00\n      keccak256\n      0x00\n      swap1\n      sload\n      swap1\n      0x0100\n      exp\n      swap1\n      div\n      0xff\n      and\n        /* \"contracts/Admin.sol\":952:979  return _whitelist[_address] */\n      swap1\n      pop\n        /* \"contracts/Admin.sol\":874:986  function isWhitelisted(address _address) public view returns (bool) {... */\n      swap2\n      swap1\n      pop\n      jump\t// out\n        /* \"@openzeppelin/contracts/access/Ownable.sol\":1831:1932  function renounceOwnership() public virtual onlyOwner {... */\n    tag_18:\n        /* \"@openzeppelin/contracts/access/Ownable.sol\":1094:1107  _checkOwner() */\n      tag_38\n        /* \"@openzeppelin/contracts/access/Ownable.sol\":1094:1105  _checkOwner */\n      tag_39\n        /* \"@openzeppelin/contracts/access/Ownable.sol\":1094:1107  _checkOwner() */\n      jump\t// in\n    tag_38:\n        /* \"@openzeppelin/contracts/access/Ownable.sol\":1895:1925  _transferOwnership(address(0)) */\n      tag_41\n        /* \"@openzeppelin/contracts/access/Ownable.sol\":1922:1923  0 */\n      0x00\n        /* \"@openzeppelin/contracts/access/Ownable.sol\":1895:1913  _transferOwnership */\n      tag_42\n        /* \"@openzeppelin/contracts/access/Ownable.sol\":1895:1925  _transferOwnership(address(0)) */\n      jump\t// in\n    tag_41:\n        /* \"@openzeppelin/contracts/access/Ownable.sol\":1831:1932  function renounceOwnership() public virtual onlyOwner {... */\n      jump\t// out\n        /* \"@openzeppelin/contracts/access/Ownable.sol\":1201:1286  function owner() public view virtual returns (address) {... */\n    tag_20:\n        /* \"@openzeppelin/contracts/access/Ownable.sol\":1247:1254  address */\n      0x00\n        /* \"@openzeppelin/contracts/access/Ownable.sol\":1273:1279  _owner */\n      dup1\n      0x00\n      swap1\n      sload\n      swap1\n      0x0100\n      exp\n      swap1\n      div\n      0xffffffffffffffffffffffffffffffffffffffff\n      and\n        /* \"@openzeppelin/contracts/access/Ownable.sol\":1266:1279  return _owner */\n      swap1\n      pop\n        /* \"@openzeppelin/contracts/access/Ownable.sol\":1201:1286  function owner() public view virtual returns (address) {... */\n      swap1\n      jump\t// out\n        /* \"contracts/Admin.sol\":298:580  function whitelist(address _address) public onlyOwner {... */\n    tag_25:\n        /* \"@openzeppelin/contracts/access/Ownable.sol\":1094:1107  _checkOwner() */\n      tag_45\n        /* \"@openzeppelin/contracts/access/Ownable.sol\":1094:1105  _checkOwner */\n      tag_39\n        /* \"@openzeppelin/contracts/access/Ownable.sol\":1094:1107  _checkOwner() */\n      jump\t// in\n    tag_45:\n        /* \"contracts/Admin.sol\":371:394  isWhitelisted(_address) */\n      tag_47\n        /* \"contracts/Admin.sol\":385:393  _address */\n      dup2\n        /* \"contracts/Admin.sol\":371:384  isWhitelisted */\n      tag_14\n        /* \"contracts/Admin.sol\":371:394  isWhitelisted(_address) */\n      jump\t// in\n    tag_47:\n        /* \"contracts/Admin.sol\":370:394  !isWhitelisted(_address) */\n      iszero\n        /* \"contracts/Admin.sol\":362:426  require(!isWhitelisted(_address), \"Address already whitelisted\") */\n      tag_48\n      jumpi\n      mload(0x40)\n      0x08c379a000000000000000000000000000000000000000000000000000000000\n      dup2\n      mstore\n      0x04\n      add\n      tag_49\n      swap1\n      tag_50\n      jump\t// in\n    tag_49:\n      mload(0x40)\n      dup1\n      swap2\n      sub\n      swap1\n      revert\n    tag_48:\n        /* \"contracts/Admin.sol\":445:468  isBlackListed(_address) */\n      tag_51\n        /* \"contracts/Admin.sol\":459:467  _address */\n      dup2\n        /* \"contracts/Admin.sol\":445:458  isBlackListed */\n      tag_28\n        /* \"contracts/Admin.sol\":445:468  isBlackListed(_address) */\n      jump\t// in\n    tag_51:\n        /* \"contracts/Admin.sol\":444:468  !isBlackListed(_address) */\n      iszero\n        /* \"contracts/Admin.sol\":436:500  require(!isBlackListed(_address), \"Address already blacklisted\") */\n      tag_52\n      jumpi\n      mload(0x40)\n      0x08c379a000000000000000000000000000000000000000000000000000000000\n      dup2\n      mstore\n      0x04\n      add\n      tag_53\n      swap1\n      tag_54\n      jump\t// in\n    tag_53:\n      mload(0x40)\n      dup1\n      swap2\n      sub\n      swap1\n      revert\n    tag_52:\n        /* \"contracts/Admin.sol\":533:537  true */\n      0x01\n        /* \"contracts/Admin.sol\":510:520  _whitelist */\n      dup1\n        /* \"contracts/Admin.sol\":510:530  _whitelist[_address] */\n      0x00\n        /* \"contracts/Admin.sol\":521:529  _address */\n      dup4\n        /* \"contracts/Admin.sol\":510:530  _whitelist[_address] */\n      0xffffffffffffffffffffffffffffffffffffffff\n      and\n      0xffffffffffffffffffffffffffffffffffffffff\n      and\n      dup2\n      mstore\n      0x20\n      add\n      swap1\n      dup2\n      mstore\n      0x20\n      add\n      0x00\n      keccak256\n      0x00\n        /* \"contracts/Admin.sol\":510:537  _whitelist[_address] = true */\n      0x0100\n      exp\n      dup2\n      sload\n      dup2\n      0xff\n      mul\n      not\n      and\n      swap1\n      dup4\n      iszero\n      iszero\n      mul\n      or\n      swap1\n      sstore\n      pop\n        /* \"contracts/Admin.sol\":552:573  Whitelisted(_address) */\n      0xaab7954e9d246b167ef88aeddad35209ca2489d95a8aeb59e288d9b19fae5a54\n        /* \"contracts/Admin.sol\":564:572  _address */\n      dup2\n        /* \"contracts/Admin.sol\":552:573  Whitelisted(_address) */\n      mload(0x40)\n      tag_55\n      swap2\n      swap1\n      tag_22\n      jump\t// in\n    tag_55:\n      mload(0x40)\n      dup1\n      swap2\n      sub\n      swap1\n      log1\n        /* \"contracts/Admin.sol\":298:580  function whitelist(address _address) public onlyOwner {... */\n      pop\n      jump\t// out\n        /* \"contracts/Admin.sol\":992:1104  function isBlackListed(address _address) public view returns (bool) {... */\n    tag_28:\n        /* \"contracts/Admin.sol\":1054:1058  bool */\n      0x00\n        /* \"contracts/Admin.sol\":1077:1087  _blacklist */\n      0x02\n        /* \"contracts/Admin.sol\":1077:1097  _blacklist[_address] */\n      0x00\n        /* \"contracts/Admin.sol\":1088:1096  _address */\n      dup4\n        /* \"contracts/Admin.sol\":1077:1097  _blacklist[_address] */\n      0xffffffffffffffffffffffffffffffffffffffff\n      and\n      0xffffffffffffffffffffffffffffffffffffffff\n      and\n      dup2\n      mstore\n      0x20\n      add\n      swap1\n      dup2\n      mstore\n      0x20\n      add\n      0x00\n      keccak256\n      0x00\n      swap1\n      sload\n      swap1\n      0x0100\n      exp\n      swap1\n      div\n      0xff\n      and\n        /* \"contracts/Admin.sol\":1070:1097  return _blacklist[_address] */\n      swap1\n      pop\n        /* \"contracts/Admin.sol\":992:1104  function isBlackListed(address _address) public view returns (bool) {... */\n      swap2\n      swap1\n      pop\n      jump\t// out\n        /* \"@openzeppelin/contracts/access/Ownable.sol\":2081:2279  function transferOwnership(address newOwner) public virtual onlyOwner {... */\n    tag_32:\n        /* \"@openzeppelin/contracts/access/Ownable.sol\":1094:1107  _checkOwner() */\n      tag_58\n        /* \"@openzeppelin/contracts/access/Ownable.sol\":1094:1105  _checkOwner */\n      tag_39\n        /* \"@openzeppelin/contracts/access/Ownable.sol\":1094:1107  _checkOwner() */\n      jump\t// in\n    tag_58:\n        /* \"@openzeppelin/contracts/access/Ownable.sol\":2189:2190  0 */\n      0x00\n        /* \"@openzeppelin/contracts/access/Ownable.sol\":2169:2191  newOwner != address(0) */\n      0xffffffffffffffffffffffffffffffffffffffff\n      and\n        /* \"@openzeppelin/contracts/access/Ownable.sol\":2169:2177  newOwner */\n      dup2\n        /* \"@openzeppelin/contracts/access/Ownable.sol\":2169:2191  newOwner != address(0) */\n      0xffffffffffffffffffffffffffffffffffffffff\n      and\n      sub\n        /* \"@openzeppelin/contracts/access/Ownable.sol\":2161:2234  require(newOwner != address(0), \"Ownable: new owner is the zero address\") */\n      tag_60\n      jumpi\n      mload(0x40)\n      0x08c379a000000000000000000000000000000000000000000000000000000000\n      dup2\n      mstore\n      0x04\n      add\n      tag_61\n      swap1\n      tag_62\n      jump\t// in\n    tag_61:\n      mload(0x40)\n      dup1\n      swap2\n      sub\n      swap1\n      revert\n    tag_60:\n        /* \"@openzeppelin/contracts/access/Ownable.sol\":2244:2272  _transferOwnership(newOwner) */\n      tag_63\n        /* \"@openzeppelin/contracts/access/Ownable.sol\":2263:2271  newOwner */\n      dup2\n        /* \"@openzeppelin/contracts/access/Ownable.sol\":2244:2262  _transferOwnership */\n      tag_42\n        /* \"@openzeppelin/contracts/access/Ownable.sol\":2244:2272  _transferOwnership(newOwner) */\n      jump\t// in\n    tag_63:\n        /* \"@openzeppelin/contracts/access/Ownable.sol\":2081:2279  function transferOwnership(address newOwner) public virtual onlyOwner {... */\n      pop\n      jump\t// out\n        /* \"contracts/Admin.sol\":586:868  function blacklist(address _address) public onlyOwner {... */\n    tag_35:\n        /* \"@openzeppelin/contracts/access/Ownable.sol\":1094:1107  _checkOwner() */\n      tag_65\n        /* \"@openzeppelin/contracts/access/Ownable.sol\":1094:1105  _checkOwner */\n      tag_39\n        /* \"@openzeppelin/contracts/access/Ownable.sol\":1094:1107  _checkOwner() */\n      jump\t// in\n    tag_65:\n        /* \"contracts/Admin.sol\":659:682  isWhitelisted(_address) */\n      tag_67\n        /* \"contracts/Admin.sol\":673:681  _address */\n      dup2\n        /* \"contracts/Admin.sol\":659:672  isWhitelisted */\n      tag_14\n        /* \"contracts/Admin.sol\":659:682  isWhitelisted(_address) */\n      jump\t// in\n    tag_67:\n        /* \"contracts/Admin.sol\":658:682  !isWhitelisted(_address) */\n      iszero\n        /* \"contracts/Admin.sol\":650:714  require(!isWhitelisted(_address), \"Address already whitelisted\") */\n      tag_68\n      jumpi\n      mload(0x40)\n      0x08c379a000000000000000000000000000000000000000000000000000000000\n      dup2\n      mstore\n      0x04\n      add\n      tag_69\n      swap1\n      tag_50\n      jump\t// in\n    tag_69:\n      mload(0x40)\n      dup1\n      swap2\n      sub\n      swap1\n      revert\n    tag_68:\n        /* \"contracts/Admin.sol\":733:756  isBlackListed(_address) */\n      tag_70\n        /* \"contracts/Admin.sol\":747:755  _address */\n      dup2\n        /* \"contracts/Admin.sol\":733:746  isBlackListed */\n      tag_28\n        /* \"contracts/Admin.sol\":733:756  isBlackListed(_address) */\n      jump\t// in\n    tag_70:\n        /* \"contracts/Admin.sol\":732:756  !isBlackListed(_address) */\n      iszero\n        /* \"contracts/Admin.sol\":724:788  require(!isBlackListed(_address), \"Address already blacklisted\") */\n      tag_71\n      jumpi\n      mload(0x40)\n      0x08c379a000000000000000000000000000000000000000000000000000000000\n      dup2\n      mstore\n      0x04\n      add\n      tag_72\n      swap1\n      tag_54\n      jump\t// in\n    tag_72:\n      mload(0x40)\n      dup1\n      swap2\n      sub\n      swap1\n      revert\n    tag_71:\n        /* \"contracts/Admin.sol\":821:825  true */\n      0x01\n        /* \"contracts/Admin.sol\":798:808  _blacklist */\n      0x02\n        /* \"contracts/Admin.sol\":798:818  _blacklist[_address] */\n      0x00\n        /* \"contracts/Admin.sol\":809:817  _address */\n      dup4\n        /* \"contracts/Admin.sol\":798:818  _blacklist[_address] */\n      0xffffffffffffffffffffffffffffffffffffffff\n      and\n      0xffffffffffffffffffffffffffffffffffffffff\n      and\n      dup2\n      mstore\n      0x20\n      add\n      swap1\n      dup2\n      mstore\n      0x20\n      add\n      0x00\n      keccak256\n      0x00\n        /* \"contracts/Admin.sol\":798:825  _blacklist[_address] = true */\n      0x0100\n      exp\n      dup2\n      sload\n      dup2\n      0xff\n      mul\n      not\n      and\n      swap1\n      dup4\n      iszero\n      iszero\n      mul\n      or\n      swap1\n      sstore\n      pop\n        /* \"contracts/Admin.sol\":840:861  Blacklisted(_address) */\n      0xffa4e6181777692565cf28528fc88fd1516ea86b56da075235fa575af6a4b855\n        /* \"contracts/Admin.sol\":852:860  _address */\n      dup2\n        /* \"contracts/Admin.sol\":840:861  Blacklisted(_address) */\n      mload(0x40)\n      tag_73\n      swap2\n      swap1\n      tag_22\n      jump\t// in\n    tag_73:\n      mload(0x40)\n      dup1\n      swap2\n      sub\n      swap1\n      log1\n        /* \"contracts/Admin.sol\":586:868  function blacklist(address _address) public onlyOwner {... */\n      pop\n      jump\t// out\n        /* \"@openzeppelin/contracts/access/Ownable.sol\":1359:1489  function _checkOwner() internal view virtual {... */\n    tag_39:\n        /* \"@openzeppelin/contracts/access/Ownable.sol\":1433:1445  _msgSender() */\n      tag_75\n        /* \"@openzeppelin/contracts/access/Ownable.sol\":1433:1443  _msgSender */\n      tag_76\n        /* \"@openzeppelin/contracts/access/Ownable.sol\":1433:1445  _msgSender() */\n      jump\t// in\n    tag_75:\n        /* \"@openzeppelin/contracts/access/Ownable.sol\":1422:1445  owner() == _msgSender() */\n      0xffffffffffffffffffffffffffffffffffffffff\n      and\n        /* \"@openzeppelin/contracts/access/Ownable.sol\":1422:1429  owner() */\n      tag_77\n        /* \"@openzeppelin/contracts/access/Ownable.sol\":1422:1427  owner */\n      tag_20\n        /* \"@openzeppelin/contracts/access/Ownable.sol\":1422:1429  owner() */\n      jump\t// in\n    tag_77:\n        /* \"@openzeppelin/contracts/access/Ownable.sol\":1422:1445  owner() == _msgSender() */\n      0xffffffffffffffffffffffffffffffffffffffff\n      and\n      eq\n        /* \"@openzeppelin/contracts/access/Ownable.sol\":1414:1482  require(owner() == _msgSender(), \"Ownable: caller is not the owner\") */\n      tag_78\n      jumpi\n      mload(0x40)\n      0x08c379a000000000000000000000000000000000000000000000000000000000\n      dup2\n      mstore\n      0x04\n      add\n      tag_79\n      swap1\n      tag_80\n      jump\t// in\n    tag_79:\n      mload(0x40)\n      dup1\n      swap2\n      sub\n      swap1\n      revert\n    tag_78:\n        /* \"@openzeppelin/contracts/access/Ownable.sol\":1359:1489  function _checkOwner() internal view virtual {... */\n      jump\t// out\n        /* \"@openzeppelin/contracts/access/Ownable.sol\":2433:2620  function _transferOwnership(address newOwner) internal virtual {... */\n    tag_42:\n        /* \"@openzeppelin/contracts/access/Ownable.sol\":2506:2522  address oldOwner */\n      0x00\n        /* \"@openzeppelin/contracts/access/Ownable.sol\":2525:2531  _owner */\n      dup1\n      0x00\n      swap1\n      sload\n      swap1\n      0x0100\n      exp\n      swap1\n      div\n      0xffffffffffffffffffffffffffffffffffffffff\n      and\n        /* \"@openzeppelin/contracts/access/Ownable.sol\":2506:2531  address oldOwner = _owner */\n      swap1\n      pop\n        /* \"@openzeppelin/contracts/access/Ownable.sol\":2550:2558  newOwner */\n      dup2\n        /* \"@openzeppelin/contracts/access/Ownable.sol\":2541:2547  _owner */\n      0x00\n      dup1\n        /* \"@openzeppelin/contracts/access/Ownable.sol\":2541:2558  _owner = newOwner */\n      0x0100\n      exp\n      dup2\n      sload\n      dup2\n      0xffffffffffffffffffffffffffffffffffffffff\n      mul\n      not\n      and\n      swap1\n      dup4\n      0xffffffffffffffffffffffffffffffffffffffff\n      and\n      mul\n      or\n      swap1\n      sstore\n      pop\n        /* \"@openzeppelin/contracts/access/Ownable.sol\":2604:2612  newOwner */\n      dup2\n        /* \"@openzeppelin/contracts/access/Ownable.sol\":2573:2613  OwnershipTransferred(oldOwner, newOwner) */\n      0xffffffffffffffffffffffffffffffffffffffff\n      and\n        /* \"@openzeppelin/contracts/access/Ownable.sol\":2594:2602  oldOwner */\n      dup2\n        /* \"@openzeppelin/contracts/access/Ownable.sol\":2573:2613  OwnershipTransferred(oldOwner, newOwner) */\n      0xffffffffffffffffffffffffffffffffffffffff\n      and\n      0x8be0079c531659141344cd1fd0a4f28419497f9722a3daafe3b4186f6b6457e0\n      mload(0x40)\n      mload(0x40)\n      dup1\n      swap2\n      sub\n      swap1\n      log3\n        /* \"@openzeppelin/contracts/access/Ownable.sol\":2496:2620  {... */\n      pop\n        /* \"@openzeppelin/contracts/access/Ownable.sol\":2433:2620  function _transferOwnership(address newOwner) internal virtual {... */\n      pop\n      jump\t// out\n        /* \"@openzeppelin/contracts/utils/Context.sol\":640:736  function _msgSender() internal view virtual returns (address) {... */\n    tag_76:\n        /* \"@openzeppelin/contracts/utils/Context.sol\":693:700  address */\n      0x00\n        /* \"@openzeppelin/contracts/utils/Context.sol\":719:729  msg.sender */\n      caller\n        /* \"@openzeppelin/contracts/utils/Context.sol\":712:729  return msg.sender */\n      swap1\n      pop\n        /* \"@openzeppelin/contracts/utils/Context.sol\":640:736  function _msgSender() internal view virtual returns (address) {... */\n      swap1\n      jump\t// out\n        /* \"#utility.yul\":88:205   */\n    tag_84:\n        /* \"#utility.yul\":197:198   */\n      0x00\n        /* \"#utility.yul\":194:195   */\n      dup1\n        /* \"#utility.yul\":187:199   */\n      revert\n        /* \"#utility.yul\":334:460   */\n    tag_86:\n        /* \"#utility.yul\":371:378   */\n      0x00\n        /* \"#utility.yul\":411:453   */\n      0xffffffffffffffffffffffffffffffffffffffff\n        /* \"#utility.yul\":404:409   */\n      dup3\n        /* \"#utility.yul\":400:454   */\n      and\n        /* \"#utility.yul\":389:454   */\n      swap1\n      pop\n        /* \"#utility.yul\":334:460   */\n      swap2\n      swap1\n      pop\n      jump\t// out\n        /* \"#utility.yul\":466:562   */\n    tag_87:\n        /* \"#utility.yul\":503:510   */\n      0x00\n        /* \"#utility.yul\":532:556   */\n      tag_108\n        /* \"#utility.yul\":550:555   */\n      dup3\n        /* \"#utility.yul\":532:556   */\n      tag_86\n      jump\t// in\n    tag_108:\n        /* \"#utility.yul\":521:556   */\n      swap1\n      pop\n        /* \"#utility.yul\":466:562   */\n      swap2\n      swap1\n      pop\n      jump\t// out\n        /* \"#utility.yul\":568:690   */\n    tag_88:\n        /* \"#utility.yul\":641:665   */\n      tag_110\n        /* \"#utility.yul\":659:664   */\n      dup2\n        /* \"#utility.yul\":641:665   */\n      tag_87\n      jump\t// in\n    tag_110:\n        /* \"#utility.yul\":634:639   */\n      dup2\n        /* \"#utility.yul\":631:666   */\n      eq\n        /* \"#utility.yul\":621:684   */\n      tag_111\n      jumpi\n        /* \"#utility.yul\":680:681   */\n      0x00\n        /* \"#utility.yul\":677:678   */\n      dup1\n        /* \"#utility.yul\":670:682   */\n      revert\n        /* \"#utility.yul\":621:684   */\n    tag_111:\n        /* \"#utility.yul\":568:690   */\n      pop\n      jump\t// out\n        /* \"#utility.yul\":696:835   */\n    tag_89:\n        /* \"#utility.yul\":742:747   */\n      0x00\n        /* \"#utility.yul\":780:786   */\n      dup2\n        /* \"#utility.yul\":767:787   */\n      calldataload\n        /* \"#utility.yul\":758:787   */\n      swap1\n      pop\n        /* \"#utility.yul\":796:829   */\n      tag_113\n        /* \"#utility.yul\":823:828   */\n      dup2\n        /* \"#utility.yul\":796:829   */\n      tag_88\n      jump\t// in\n    tag_113:\n        /* \"#utility.yul\":696:835   */\n      swap3\n      swap2\n      pop\n      pop\n      jump\t// out\n        /* \"#utility.yul\":841:1170   */\n    tag_13:\n        /* \"#utility.yul\":900:906   */\n      0x00\n        /* \"#utility.yul\":949:951   */\n      0x20\n        /* \"#utility.yul\":937:946   */\n      dup3\n        /* \"#utility.yul\":928:935   */\n      dup5\n        /* \"#utility.yul\":924:947   */\n      sub\n        /* \"#utility.yul\":920:952   */\n      slt\n        /* \"#utility.yul\":917:1036   */\n      iszero\n      tag_115\n      jumpi\n        /* \"#utility.yul\":955:1034   */\n      tag_116\n      tag_84\n      jump\t// in\n    tag_116:\n        /* \"#utility.yul\":917:1036   */\n    tag_115:\n        /* \"#utility.yul\":1075:1076   */\n      0x00\n        /* \"#utility.yul\":1100:1153   */\n      tag_117\n        /* \"#utility.yul\":1145:1152   */\n      dup5\n        /* \"#utility.yul\":1136:1142   */\n      dup3\n        /* \"#utility.yul\":1125:1134   */\n      dup6\n        /* \"#utility.yul\":1121:1143   */\n      add\n        /* \"#utility.yul\":1100:1153   */\n      tag_89\n      jump\t// in\n    tag_117:\n        /* \"#utility.yul\":1090:1153   */\n      swap2\n      pop\n        /* \"#utility.yul\":1046:1163   */\n      pop\n        /* \"#utility.yul\":841:1170   */\n      swap3\n      swap2\n      pop\n      pop\n      jump\t// out\n        /* \"#utility.yul\":1176:1266   */\n    tag_90:\n        /* \"#utility.yul\":1210:1217   */\n      0x00\n        /* \"#utility.yul\":1253:1258   */\n      dup2\n        /* \"#utility.yul\":1246:1259   */\n      iszero\n        /* \"#utility.yul\":1239:1260   */\n      iszero\n        /* \"#utility.yul\":1228:1260   */\n      swap1\n      pop\n        /* \"#utility.yul\":1176:1266   */\n      swap2\n      swap1\n      pop\n      jump\t// out\n        /* \"#utility.yul\":1272:1381   */\n    tag_91:\n        /* \"#utility.yul\":1353:1374   */\n      tag_120\n        /* \"#utility.yul\":1368:1373   */\n      dup2\n        /* \"#utility.yul\":1353:1374   */\n      tag_90\n      jump\t// in\n    tag_120:\n        /* \"#utility.yul\":1348:1351   */\n      dup3\n        /* \"#utility.yul\":1341:1375   */\n      mstore\n        /* \"#utility.yul\":1272:1381   */\n      pop\n      pop\n      jump\t// out\n        /* \"#utility.yul\":1387:1597   */\n    tag_16:\n        /* \"#utility.yul\":1474:1478   */\n      0x00\n        /* \"#utility.yul\":1512:1514   */\n      0x20\n        /* \"#utility.yul\":1501:1510   */\n      dup3\n        /* \"#utility.yul\":1497:1515   */\n      add\n        /* \"#utility.yul\":1489:1515   */\n      swap1\n      pop\n        /* \"#utility.yul\":1525:1590   */\n      tag_122\n        /* \"#utility.yul\":1587:1588   */\n      0x00\n        /* \"#utility.yul\":1576:1585   */\n      dup4\n        /* \"#utility.yul\":1572:1589   */\n      add\n        /* \"#utility.yul\":1563:1569   */\n      dup5\n        /* \"#utility.yul\":1525:1590   */\n      tag_91\n      jump\t// in\n    tag_122:\n        /* \"#utility.yul\":1387:1597   */\n      swap3\n      swap2\n      pop\n      pop\n      jump\t// out\n        /* \"#utility.yul\":1603:1721   */\n    tag_92:\n        /* \"#utility.yul\":1690:1714   */\n      tag_124\n        /* \"#utility.yul\":1708:1713   */\n      dup2\n        /* \"#utility.yul\":1690:1714   */\n      tag_87\n      jump\t// in\n    tag_124:\n        /* \"#utility.yul\":1685:1688   */\n      dup3\n        /* \"#utility.yul\":1678:1715   */\n      mstore\n        /* \"#utility.yul\":1603:1721   */\n      pop\n      pop\n      jump\t// out\n        /* \"#utility.yul\":1727:1949   */\n    tag_22:\n        /* \"#utility.yul\":1820:1824   */\n      0x00\n        /* \"#utility.yul\":1858:1860   */\n      0x20\n        /* \"#utility.yul\":1847:1856   */\n      dup3\n        /* \"#utility.yul\":1843:1861   */\n      add\n        /* \"#utility.yul\":1835:1861   */\n      swap1\n      pop\n        /* \"#utility.yul\":1871:1942   */\n      tag_126\n        /* \"#utility.yul\":1939:1940   */\n      0x00\n        /* \"#utility.yul\":1928:1937   */\n      dup4\n        /* \"#utility.yul\":1924:1941   */\n      add\n        /* \"#utility.yul\":1915:1921   */\n      dup5\n        /* \"#utility.yul\":1871:1942   */\n      tag_92\n      jump\t// in\n    tag_126:\n        /* \"#utility.yul\":1727:1949   */\n      swap3\n      swap2\n      pop\n      pop\n      jump\t// out\n        /* \"#utility.yul\":1955:2124   */\n    tag_93:\n        /* \"#utility.yul\":2039:2050   */\n      0x00\n        /* \"#utility.yul\":2073:2079   */\n      dup3\n        /* \"#utility.yul\":2068:2071   */\n      dup3\n        /* \"#utility.yul\":2061:2080   */\n      mstore\n        /* \"#utility.yul\":2113:2117   */\n      0x20\n        /* \"#utility.yul\":2108:2111   */\n      dup3\n        /* \"#utility.yul\":2104:2118   */\n      add\n        /* \"#utility.yul\":2089:2118   */\n      swap1\n      pop\n        /* \"#utility.yul\":1955:2124   */\n      swap3\n      swap2\n      pop\n      pop\n      jump\t// out\n        /* \"#utility.yul\":2130:2307   */\n    tag_94:\n        /* \"#utility.yul\":2270:2299   */\n      0x4164647265737320616c72656164792077686974656c69737465640000000000\n        /* \"#utility.yul\":2266:2267   */\n      0x00\n        /* \"#utility.yul\":2258:2264   */\n      dup3\n        /* \"#utility.yul\":2254:2268   */\n      add\n        /* \"#utility.yul\":2247:2300   */\n      mstore\n        /* \"#utility.yul\":2130:2307   */\n      pop\n      jump\t// out\n        /* \"#utility.yul\":2313:2679   */\n    tag_95:\n        /* \"#utility.yul\":2455:2458   */\n      0x00\n        /* \"#utility.yul\":2476:2543   */\n      tag_130\n        /* \"#utility.yul\":2540:2542   */\n      0x1b\n        /* \"#utility.yul\":2535:2538   */\n      dup4\n        /* \"#utility.yul\":2476:2543   */\n      tag_93\n      jump\t// in\n    tag_130:\n        /* \"#utility.yul\":2469:2543   */\n      swap2\n      pop\n        /* \"#utility.yul\":2552:2645   */\n      tag_131\n        /* \"#utility.yul\":2641:2644   */\n      dup3\n        /* \"#utility.yul\":2552:2645   */\n      tag_94\n      jump\t// in\n    tag_131:\n        /* \"#utility.yul\":2670:2672   */\n      0x20\n        /* \"#utility.yul\":2665:2668   */\n      dup3\n        /* \"#utility.yul\":2661:2673   */\n      add\n        /* \"#utility.yul\":2654:2673   */\n      swap1\n      pop\n        /* \"#utility.yul\":2313:2679   */\n      swap2\n      swap1\n      pop\n      jump\t// out\n        /* \"#utility.yul\":2685:3104   */\n    tag_50:\n        /* \"#utility.yul\":2851:2855   */\n      0x00\n        /* \"#utility.yul\":2889:2891   */\n      0x20\n        /* \"#utility.yul\":2878:2887   */\n      dup3\n        /* \"#utility.yul\":2874:2892   */\n      add\n        /* \"#utility.yul\":2866:2892   */\n      swap1\n      pop\n        /* \"#utility.yul\":2938:2947   */\n      dup2\n        /* \"#utility.yul\":2932:2936   */\n      dup2\n        /* \"#utility.yul\":2928:2948   */\n      sub\n        /* \"#utility.yul\":2924:2925   */\n      0x00\n        /* \"#utility.yul\":2913:2922   */\n      dup4\n        /* \"#utility.yul\":2909:2926   */\n      add\n        /* \"#utility.yul\":2902:2949   */\n      mstore\n        /* \"#utility.yul\":2966:3097   */\n      tag_133\n        /* \"#utility.yul\":3092:3096   */\n      dup2\n        /* \"#utility.yul\":2966:3097   */\n      tag_95\n      jump\t// in\n    tag_133:\n        /* \"#utility.yul\":2958:3097   */\n      swap1\n      pop\n        /* \"#utility.yul\":2685:3104   */\n      swap2\n      swap1\n      pop\n      jump\t// out\n        /* \"#utility.yul\":3110:3287   */\n    tag_96:\n        /* \"#utility.yul\":3250:3279   */\n      0x4164647265737320616c726561647920626c61636b6c69737465640000000000\n        /* \"#utility.yul\":3246:3247   */\n      0x00\n        /* \"#utility.yul\":3238:3244   */\n      dup3\n        /* \"#utility.yul\":3234:3248   */\n      add\n        /* \"#utility.yul\":3227:3280   */\n      mstore\n        /* \"#utility.yul\":3110:3287   */\n      pop\n      jump\t// out\n        /* \"#utility.yul\":3293:3659   */\n    tag_97:\n        /* \"#utility.yul\":3435:3438   */\n      0x00\n        /* \"#utility.yul\":3456:3523   */\n      tag_136\n        /* \"#utility.yul\":3520:3522   */\n      0x1b\n        /* \"#utility.yul\":3515:3518   */\n      dup4\n        /* \"#utility.yul\":3456:3523   */\n      tag_93\n      jump\t// in\n    tag_136:\n        /* \"#utility.yul\":3449:3523   */\n      swap2\n      pop\n        /* \"#utility.yul\":3532:3625   */\n      tag_137\n        /* \"#utility.yul\":3621:3624   */\n      dup3\n        /* \"#utility.yul\":3532:3625   */\n      tag_96\n      jump\t// in\n    tag_137:\n        /* \"#utility.yul\":3650:3652   */\n      0x20\n        /* \"#utility.yul\":3645:3648   */\n      dup3\n        /* \"#utility.yul\":3641:3653   */\n      add\n        /* \"#utility.yul\":3634:3653   */\n      swap1\n      pop\n        /* \"#utility.yul\":3293:3659   */\n      swap2\n      swap1\n      pop\n      jump\t// out\n        /* \"#utility.yul\":3665:4084   */\n    tag_54:\n        /* \"#utility.yul\":3831:3835   */\n      0x00\n        /* \"#utility.yul\":3869:3871   */\n      0x20\n        /* \"#utility.yul\":3858:3867   */\n      dup3\n        /* \"#utility.yul\":3854:3872   */\n      add\n        /* \"#utility.yul\":3846:3872   */\n      swap1\n      pop\n        /* \"#utility.yul\":3918:3927   */\n      dup2\n        /* \"#utility.yul\":3912:3916   */\n      dup2\n        /* \"#utility.yul\":3908:3928   */\n      sub\n        /* \"#utility.yul\":3904:3905   */\n      0x00\n        /* \"#utility.yul\":3893:3902   */\n      dup4\n        /* \"#utility.yul\":3889:3906   */\n      add\n        /* \"#utility.yul\":3882:3929   */\n      mstore\n        /* \"#utility.yul\":3946:4077   */\n      tag_139\n        /* \"#utility.yul\":4072:4076   */\n      dup2\n        /* \"#utility.yul\":3946:4077   */\n      tag_97\n      jump\t// in\n    tag_139:\n        /* \"#utility.yul\":3938:4077   */\n      swap1\n      pop\n        /* \"#utility.yul\":3665:4084   */\n      swap2\n      swap1\n      pop\n      jump\t// out\n        /* \"#utility.yul\":4090:4315   */\n    tag_98:\n        /* \"#utility.yul\":4230:4264   */\n      0x4f776e61626c653a206e6577206f776e657220697320746865207a65726f2061\n        /* \"#utility.yul\":4226:4227   */\n      0x00\n        /* \"#utility.yul\":4218:4224   */\n      dup3\n        /* \"#utility.yul\":4214:4228   */\n      add\n        /* \"#utility.yul\":4207:4265   */\n      mstore\n        /* \"#utility.yul\":4299:4307   */\n      0x6464726573730000000000000000000000000000000000000000000000000000\n        /* \"#utility.yul\":4294:4296   */\n      0x20\n        /* \"#utility.yul\":4286:4292   */\n      dup3\n        /* \"#utility.yul\":4282:4297   */\n      add\n        /* \"#utility.yul\":4275:4308   */\n      mstore\n        /* \"#utility.yul\":4090:4315   */\n      pop\n      jump\t// out\n        /* \"#utility.yul\":4321:4687   */\n    tag_99:\n        /* \"#utility.yul\":4463:4466   */\n      0x00\n        /* \"#utility.yul\":4484:4551   */\n      tag_142\n        /* \"#utility.yul\":4548:4550   */\n      0x26\n        /* \"#utility.yul\":4543:4546   */\n      dup4\n        /* \"#utility.yul\":4484:4551   */\n      tag_93\n      jump\t// in\n    tag_142:\n        /* \"#utility.yul\":4477:4551   */\n      swap2\n      pop\n        /* \"#utility.yul\":4560:4653   */\n      tag_143\n        /* \"#utility.yul\":4649:4652   */\n      dup3\n        /* \"#utility.yul\":4560:4653   */\n      tag_98\n      jump\t// in\n    tag_143:\n        /* \"#utility.yul\":4678:4680   */\n      0x40\n        /* \"#utility.yul\":4673:4676   */\n      dup3\n        /* \"#utility.yul\":4669:4681   */\n      add\n        /* \"#utility.yul\":4662:4681   */\n      swap1\n      pop\n        /* \"#utility.yul\":4321:4687   */\n      swap2\n      swap1\n      pop\n      jump\t// out\n        /* \"#utility.yul\":4693:5112   */\n    tag_62:\n        /* \"#utility.yul\":4859:4863   */\n      0x00\n        /* \"#utility.yul\":4897:4899   */\n      0x20\n        /* \"#utility.yul\":4886:4895   */\n      dup3\n        /* \"#utility.yul\":4882:4900   */\n      add\n        /* \"#utility.yul\":4874:4900   */\n      swap1\n      pop\n        /* \"#utility.yul\":4946:4955   */\n      dup2\n        /* \"#utility.yul\":4940:4944   */\n      dup2\n        /* \"#utility.yul\":4936:4956   */\n      sub\n        /* \"#utility.yul\":4932:4933   */\n      0x00\n        /* \"#utility.yul\":4921:4930   */\n      dup4\n        /* \"#utility.yul\":4917:4934   */\n      add\n        /* \"#utility.yul\":4910:4957   */\n      mstore\n        /* \"#utility.yul\":4974:5105   */\n      tag_145\n        /* \"#utility.yul\":5100:5104   */\n      dup2\n        /* \"#utility.yul\":4974:5105   */\n      tag_99\n      jump\t// in\n    tag_145:\n        /* \"#utility.yul\":4966:5105   */\n      swap1\n      pop\n        /* \"#utility.yul\":4693:5112   */\n      swap2\n      swap1\n      pop\n      jump\t// out\n        /* \"#utility.yul\":5118:5300   */\n    tag_100:\n        /* \"#utility.yul\":5258:5292   */\n      0x4f776e61626c653a2063616c6c6572206973206e6f7420746865206f776e6572\n        /* \"#utility.yul\":5254:5255   */\n      0x00\n        /* \"#utility.yul\":5246:5252   */\n      dup3\n        /* \"#utility.yul\":5242:5256   */\n      add\n        /* \"#utility.yul\":5235:5293   */\n      mstore\n        /* \"#utility.yul\":5118:5300   */\n      pop\n      jump\t// out\n        /* \"#utility.yul\":5306:5672   */\n    tag_101:\n        /* \"#utility.yul\":5448:5451   */\n      0x00\n        /* \"#utility.yul\":5469:5536   */\n      tag_148\n        /* \"#utility.yul\":5533:5535   */\n      0x20\n        /* \"#utility.yul\":5528:5531   */\n      dup4\n        /* \"#utility.yul\":5469:5536   */\n      tag_93\n      jump\t// in\n    tag_148:\n        /* \"#utility.yul\":5462:5536   */\n      swap2\n      pop\n        /* \"#utility.yul\":5545:5638   */\n      tag_149\n        /* \"#utility.yul\":5634:5637   */\n      dup3\n        /* \"#utility.yul\":5545:5638   */\n      tag_100\n      jump\t// in\n    tag_149:\n        /* \"#utility.yul\":5663:5665   */\n      0x20\n        /* \"#utility.yul\":5658:5661   */\n      dup3\n        /* \"#utility.yul\":5654:5666   */\n      add\n        /* \"#utility.yul\":5647:5666   */\n      swap1\n      pop\n        /* \"#utility.yul\":5306:5672   */\n      swap2\n      swap1\n      pop\n      jump\t// out\n        /* \"#utility.yul\":5678:6097   */\n    tag_80:\n        /* \"#utility.yul\":5844:5848   */\n      0x00\n        /* \"#utility.yul\":5882:5884   */\n      0x20\n        /* \"#utility.yul\":5871:5880   */\n      dup3\n        /* \"#utility.yul\":5867:5885   */\n      add\n        /* \"#utility.yul\":5859:5885   */\n      swap1\n      pop\n        /* \"#utility.yul\":5931:5940   */\n      dup2\n        /* \"#utility.yul\":5925:5929   */\n      dup2\n        /* \"#utility.yul\":5921:5941   */\n      sub\n        /* \"#utility.yul\":5917:5918   */\n      0x00\n        /* \"#utility.yul\":5906:5915   */\n      dup4\n        /* \"#utility.yul\":5902:5919   */\n      add\n        /* \"#utility.yul\":5895:5942   */\n      mstore\n        /* \"#utility.yul\":5959:6090   */\n      tag_151\n        /* \"#utility.yul\":6085:6089   */\n      dup2\n        /* \"#utility.yul\":5959:6090   */\n      tag_101\n      jump\t// in\n    tag_151:\n        /* \"#utility.yul\":5951:6090   */\n      swap1\n      pop\n        /* \"#utility.yul\":5678:6097   */\n      swap2\n      swap1\n      pop\n      jump\t// out\n\n    auxdata: 0xa26469706673582212200fae28204e725ed2484b541dcd14bb0f48934f9aad349c8dbf36af80b532c41a64736f6c634300080d0033\n}\n",
				"bytecode": {
					"linkReferences": {},
					"object": "608060405234801561001057600080fd5b5061002d61002261003260201b60201c565b61003a60201b60201c565b6100fe565b600033905090565b60008060009054906101000a900473ffffffffffffffffffffffffffffffffffffffff169050816000806101000a81548173ffffffffffffffffffffffffffffffffffffffff021916908373ffffffffffffffffffffffffffffffffffffffff1602179055508173ffffffffffffffffffffffffffffffffffffffff168173ffffffffffffffffffffffffffffffffffffffff167f8be0079c531659141344cd1fd0a4f28419497f9722a3daafe3b4186f6b6457e060405160405180910390a35050565b6109788061010d6000396000f3fe608060405234801561001057600080fd5b506004361061007d5760003560e01c80639b19251a1161005b5780639b19251a146100da578063e47d6060146100f6578063f2fde38b14610126578063f9f92be4146101425761007d565b80633af32abf14610082578063715018a6146100b25780638da5cb5b146100bc575b600080fd5b61009c600480360381019061009791906106ce565b61015e565b6040516100a99190610716565b60405180910390f35b6100ba6101b4565b005b6100c46101c8565b6040516100d19190610740565b60405180910390f35b6100f460048036038101906100ef91906106ce565b6101f1565b005b610110600480360381019061010b91906106ce565b61031c565b60405161011d9190610716565b60405180910390f35b610140600480360381019061013b91906106ce565b610372565b005b61015c600480360381019061015791906106ce565b6103f5565b005b6000600160008373ffffffffffffffffffffffffffffffffffffffff1673ffffffffffffffffffffffffffffffffffffffff16815260200190815260200160002060009054906101000a900460ff169050919050565b6101bc610521565b6101c6600061059f565b565b60008060009054906101000a900473ffffffffffffffffffffffffffffffffffffffff16905090565b6101f9610521565b6102028161015e565b15610242576040517f08c379a0000000000000000000000000000000000000000000000000000000008152600401610239906107b8565b60405180910390fd5b61024b8161031c565b1561028b576040517f08c379a000000000000000000000000000000000000000000000000000000000815260040161028290610824565b60405180910390fd5b60018060008373ffffffffffffffffffffffffffffffffffffffff1673ffffffffffffffffffffffffffffffffffffffff16815260200190815260200160002060006101000a81548160ff0219169083151502179055507faab7954e9d246b167ef88aeddad35209ca2489d95a8aeb59e288d9b19fae5a54816040516103119190610740565b60405180910390a150565b6000600260008373ffffffffffffffffffffffffffffffffffffffff1673ffffffffffffffffffffffffffffffffffffffff16815260200190815260200160002060009054906101000a900460ff169050919050565b61037a610521565b600073ffffffffffffffffffffffffffffffffffffffff168173ffffffffffffffffffffffffffffffffffffffff16036103e9576040517f08c379a00000000000000000000000000000000000000000000000000000000081526004016103e0906108b6565b60405180910390fd5b6103f28161059f565b50565b6103fd610521565b6104068161015e565b15610446576040517f08c379a000000000000000000000000000000000000000000000000000000000815260040161043d906107b8565b60405180910390fd5b61044f8161031c565b1561048f576040517f08c379a000000000000000000000000000000000000000000000000000000000815260040161048690610824565b60405180910390fd5b6001600260008373ffffffffffffffffffffffffffffffffffffffff1673ffffffffffffffffffffffffffffffffffffffff16815260200190815260200160002060006101000a81548160ff0219169083151502179055507fffa4e6181777692565cf28528fc88fd1516ea86b56da075235fa575af6a4b855816040516105169190610740565b60405180910390a150565b610529610663565b73ffffffffffffffffffffffffffffffffffffffff166105476101c8565b73ffffffffffffffffffffffffffffffffffffffff161461059d576040517f08c379a000000000000000000000000000000000000000000000000000000000815260040161059490610922565b60405180910390fd5b565b60008060009054906101000a900473ffffffffffffffffffffffffffffffffffffffff169050816000806101000a81548173ffffffffffffffffffffffffffffffffffffffff021916908373ffffffffffffffffffffffffffffffffffffffff1602179055508173ffffffffffffffffffffffffffffffffffffffff168173ffffffffffffffffffffffffffffffffffffffff167f8be0079c531659141344cd1fd0a4f28419497f9722a3daafe3b4186f6b6457e060405160405180910390a35050565b600033905090565b600080fd5b600073ffffffffffffffffffffffffffffffffffffffff82169050919050565b600061069b82610670565b9050919050565b6106ab81610690565b81146106b657600080fd5b50565b6000813590506106c8816106a2565b92915050565b6000602082840312156106e4576106e361066b565b5b60006106f2848285016106b9565b91505092915050565b60008115159050919050565b610710816106fb565b82525050565b600060208201905061072b6000830184610707565b92915050565b61073a81610690565b82525050565b60006020820190506107556000830184610731565b92915050565b600082825260208201905092915050565b7f4164647265737320616c72656164792077686974656c69737465640000000000600082015250565b60006107a2601b8361075b565b91506107ad8261076c565b602082019050919050565b600060208201905081810360008301526107d181610795565b9050919050565b7f4164647265737320616c726561647920626c61636b6c69737465640000000000600082015250565b600061080e601b8361075b565b9150610819826107d8565b602082019050919050565b6000602082019050818103600083015261083d81610801565b9050919050565b7f4f776e61626c653a206e6577206f776e657220697320746865207a65726f206160008201527f6464726573730000000000000000000000000000000000000000000000000000602082015250565b60006108a060268361075b565b91506108ab82610844565b604082019050919050565b600060208201905081810360008301526108cf81610893565b9050919050565b7f4f776e61626c653a2063616c6c6572206973206e6f7420746865206f776e6572600082015250565b600061090c60208361075b565b9150610917826108d6565b602082019050919050565b6000602082019050818103600083015261093b816108ff565b905091905056fea26469706673582212200fae28204e725ed2484b541dcd14bb0f48934f9aad349c8dbf36af80b532c41a64736f6c634300080d0033",
					"opcodes": "PUSH1 0x80 PUSH1 0x40 MSTORE CALLVALUE DUP1 ISZERO PUSH2 0x10 JUMPI PUSH1 0x0 DUP1 REVERT JUMPDEST POP PUSH2 0x2D PUSH2 0x22 PUSH2 0x32 PUSH1 0x20 SHL PUSH1 0x20 SHR JUMP JUMPDEST PUSH2 0x3A PUSH1 0x20 SHL PUSH1 0x20 SHR JUMP JUMPDEST PUSH2 0xFE JUMP JUMPDEST PUSH1 0x0 CALLER SWAP1 POP SWAP1 JUMP JUMPDEST PUSH1 0x0 DUP1 PUSH1 0x0 SWAP1 SLOAD SWAP1 PUSH2 0x100 EXP SWAP1 DIV PUSH20 0xFFFFFFFFFFFFFFFFFFFFFFFFFFFFFFFFFFFFFFFF AND SWAP1 POP DUP2 PUSH1 0x0 DUP1 PUSH2 0x100 EXP DUP2 SLOAD DUP2 PUSH20 0xFFFFFFFFFFFFFFFFFFFFFFFFFFFFFFFFFFFFFFFF MUL NOT AND SWAP1 DUP4 PUSH20 0xFFFFFFFFFFFFFFFFFFFFFFFFFFFFFFFFFFFFFFFF AND MUL OR SWAP1 SSTORE POP DUP2 PUSH20 0xFFFFFFFFFFFFFFFFFFFFFFFFFFFFFFFFFFFFFFFF AND DUP2 PUSH20 0xFFFFFFFFFFFFFFFFFFFFFFFFFFFFFFFFFFFFFFFF AND PUSH32 0x8BE0079C531659141344CD1FD0A4F28419497F9722A3DAAFE3B4186F6B6457E0 PUSH1 0x40 MLOAD PUSH1 0x40 MLOAD DUP1 SWAP2 SUB SWAP1 LOG3 POP POP JUMP JUMPDEST PUSH2 0x978 DUP1 PUSH2 0x10D PUSH1 0x0 CODECOPY PUSH1 0x0 RETURN INVALID PUSH1 0x80 PUSH1 0x40 MSTORE CALLVALUE DUP1 ISZERO PUSH2 0x10 JUMPI PUSH1 0x0 DUP1 REVERT JUMPDEST POP PUSH1 0x4 CALLDATASIZE LT PUSH2 0x7D JUMPI PUSH1 0x0 CALLDATALOAD PUSH1 0xE0 SHR DUP1 PUSH4 0x9B19251A GT PUSH2 0x5B JUMPI DUP1 PUSH4 0x9B19251A EQ PUSH2 0xDA JUMPI DUP1 PUSH4 0xE47D6060 EQ PUSH2 0xF6 JUMPI DUP1 PUSH4 0xF2FDE38B EQ PUSH2 0x126 JUMPI DUP1 PUSH4 0xF9F92BE4 EQ PUSH2 0x142 JUMPI PUSH2 0x7D JUMP JUMPDEST DUP1 PUSH4 0x3AF32ABF EQ PUSH2 0x82 JUMPI DUP1 PUSH4 0x715018A6 EQ PUSH2 0xB2 JUMPI DUP1 PUSH4 0x8DA5CB5B EQ PUSH2 0xBC JUMPI JUMPDEST PUSH1 0x0 DUP1 REVERT JUMPDEST PUSH2 0x9C PUSH1 0x4 DUP1 CALLDATASIZE SUB DUP2 ADD SWAP1 PUSH2 0x97 SWAP2 SWAP1 PUSH2 0x6CE JUMP JUMPDEST PUSH2 0x15E JUMP JUMPDEST PUSH1 0x40 MLOAD PUSH2 0xA9 SWAP2 SWAP1 PUSH2 0x716 JUMP JUMPDEST PUSH1 0x40 MLOAD DUP1 SWAP2 SUB SWAP1 RETURN JUMPDEST PUSH2 0xBA PUSH2 0x1B4 JUMP JUMPDEST STOP JUMPDEST PUSH2 0xC4 PUSH2 0x1C8 JUMP JUMPDEST PUSH1 0x40 MLOAD PUSH2 0xD1 SWAP2 SWAP1 PUSH2 0x740 JUMP JUMPDEST PUSH1 0x40 MLOAD DUP1 SWAP2 SUB SWAP1 RETURN JUMPDEST PUSH2 0xF4 PUSH1 0x4 DUP1 CALLDATASIZE SUB DUP2 ADD SWAP1 PUSH2 0xEF SWAP2 SWAP1 PUSH2 0x6CE JUMP JUMPDEST PUSH2 0x1F1 JUMP JUMPDEST STOP JUMPDEST PUSH2 0x110 PUSH1 0x4 DUP1 CALLDATASIZE SUB DUP2 ADD SWAP1 PUSH2 0x10B SWAP2 SWAP1 PUSH2 0x6CE JUMP JUMPDEST PUSH2 0x31C JUMP JUMPDEST PUSH1 0x40 MLOAD PUSH2 0x11D SWAP2 SWAP1 PUSH2 0x716 JUMP JUMPDEST PUSH1 0x40 MLOAD DUP1 SWAP2 SUB SWAP1 RETURN JUMPDEST PUSH2 0x140 PUSH1 0x4 DUP1 CALLDATASIZE SUB DUP2 ADD SWAP1 PUSH2 0x13B SWAP2 SWAP1 PUSH2 0x6CE JUMP JUMPDEST PUSH2 0x372 JUMP JUMPDEST STOP JUMPDEST PUSH2 0x15C PUSH1 0x4 DUP1 CALLDATASIZE SUB DUP2 ADD SWAP1 PUSH2 0x157 SWAP2 SWAP1 PUSH2 0x6CE JUMP JUMPDEST PUSH2 0x3F5 JUMP JUMPDEST STOP JUMPDEST PUSH1 0x0 PUSH1 0x1 PUSH1 0x0 DUP4 PUSH20 0xFFFFFFFFFFFFFFFFFFFFFFFFFFFFFFFFFFFFFFFF AND PUSH20 0xFFFFFFFFFFFFFFFFFFFFFFFFFFFFFFFFFFFFFFFF AND DUP2 MSTORE PUSH1 0x20 ADD SWAP1 DUP2 MSTORE PUSH1 0x20 ADD PUSH1 0x0 KECCAK256 PUSH1 0x0 SWAP1 SLOAD SWAP1 PUSH2 0x100 EXP SWAP1 DIV PUSH1 0xFF AND SWAP1 POP SWAP2 SWAP1 POP JUMP JUMPDEST PUSH2 0x1BC PUSH2 0x521 JUMP JUMPDEST PUSH2 0x1C6 PUSH1 0x0 PUSH2 0x59F JUMP JUMPDEST JUMP JUMPDEST PUSH1 0x0 DUP1 PUSH1 0x0 SWAP1 SLOAD SWAP1 PUSH2 0x100 EXP SWAP1 DIV PUSH20 0xFFFFFFFFFFFFFFFFFFFFFFFFFFFFFFFFFFFFFFFF AND SWAP1 POP SWAP1 JUMP JUMPDEST PUSH2 0x1F9 PUSH2 0x521 JUMP JUMPDEST PUSH2 0x202 DUP2 PUSH2 0x15E JUMP JUMPDEST ISZERO PUSH2 0x242 JUMPI PUSH1 0x40 MLOAD PUSH32 0x8C379A000000000000000000000000000000000000000000000000000000000 DUP2 MSTORE PUSH1 0x4 ADD PUSH2 0x239 SWAP1 PUSH2 0x7B8 JUMP JUMPDEST PUSH1 0x40 MLOAD DUP1 SWAP2 SUB SWAP1 REVERT JUMPDEST PUSH2 0x24B DUP2 PUSH2 0x31C JUMP JUMPDEST ISZERO PUSH2 0x28B JUMPI PUSH1 0x40 MLOAD PUSH32 0x8C379A000000000000000000000000000000000000000000000000000000000 DUP2 MSTORE PUSH1 0x4 ADD PUSH2 0x282 SWAP1 PUSH2 0x824 JUMP JUMPDEST PUSH1 0x40 MLOAD DUP1 SWAP2 SUB SWAP1 REVERT JUMPDEST PUSH1 0x1 DUP1 PUSH1 0x0 DUP4 PUSH20 0xFFFFFFFFFFFFFFFFFFFFFFFFFFFFFFFFFFFFFFFF AND PUSH20 0xFFFFFFFFFFFFFFFFFFFFFFFFFFFFFFFFFFFFFFFF AND DUP2 MSTORE PUSH1 0x20 ADD SWAP1 DUP2 MSTORE PUSH1 0x20 ADD PUSH1 0x0 KECCAK256 PUSH1 0x0 PUSH2 0x100 EXP DUP2 SLOAD DUP2 PUSH1 0xFF MUL NOT AND SWAP1 DUP4 ISZERO ISZERO MUL OR SWAP1 SSTORE POP PUSH32 0xAAB7954E9D246B167EF88AEDDAD35209CA2489D95A8AEB59E288D9B19FAE5A54 DUP2 PUSH1 0x40 MLOAD PUSH2 0x311 SWAP2 SWAP1 PUSH2 0x740 JUMP JUMPDEST PUSH1 0x40 MLOAD DUP1 SWAP2 SUB SWAP1 LOG1 POP JUMP JUMPDEST PUSH1 0x0 PUSH1 0x2 PUSH1 0x0 DUP4 PUSH20 0xFFFFFFFFFFFFFFFFFFFFFFFFFFFFFFFFFFFFFFFF AND PUSH20 0xFFFFFFFFFFFFFFFFFFFFFFFFFFFFFFFFFFFFFFFF AND DUP2 MSTORE PUSH1 0x20 ADD SWAP1 DUP2 MSTORE PUSH1 0x20 ADD PUSH1 0x0 KECCAK256 PUSH1 0x0 SWAP1 SLOAD SWAP1 PUSH2 0x100 EXP SWAP1 DIV PUSH1 0xFF AND SWAP1 POP SWAP2 SWAP1 POP JUMP JUMPDEST PUSH2 0x37A PUSH2 0x521 JUMP JUMPDEST PUSH1 0x0 PUSH20 0xFFFFFFFFFFFFFFFFFFFFFFFFFFFFFFFFFFFFFFFF AND DUP2 PUSH20 0xFFFFFFFFFFFFFFFFFFFFFFFFFFFFFFFFFFFFFFFF AND SUB PUSH2 0x3E9 JUMPI PUSH1 0x40 MLOAD PUSH32 0x8C379A000000000000000000000000000000000000000000000000000000000 DUP2 MSTORE PUSH1 0x4 ADD PUSH2 0x3E0 SWAP1 PUSH2 0x8B6 JUMP JUMPDEST PUSH1 0x40 MLOAD DUP1 SWAP2 SUB SWAP1 REVERT JUMPDEST PUSH2 0x3F2 DUP2 PUSH2 0x59F JUMP JUMPDEST POP JUMP JUMPDEST PUSH2 0x3FD PUSH2 0x521 JUMP JUMPDEST PUSH2 0x406 DUP2 PUSH2 0x15E JUMP JUMPDEST ISZERO PUSH2 0x446 JUMPI PUSH1 0x40 MLOAD PUSH32 0x8C379A000000000000000000000000000000000000000000000000000000000 DUP2 MSTORE PUSH1 0x4 ADD PUSH2 0x43D SWAP1 PUSH2 0x7B8 JUMP JUMPDEST PUSH1 0x40 MLOAD DUP1 SWAP2 SUB SWAP1 REVERT JUMPDEST PUSH2 0x44F DUP2 PUSH2 0x31C JUMP JUMPDEST ISZERO PUSH2 0x48F JUMPI PUSH1 0x40 MLOAD PUSH32 0x8C379A000000000000000000000000000000000000000000000000000000000 DUP2 MSTORE PUSH1 0x4 ADD PUSH2 0x486 SWAP1 PUSH2 0x824 JUMP JUMPDEST PUSH1 0x40 MLOAD DUP1 SWAP2 SUB SWAP1 REVERT JUMPDEST PUSH1 0x1 PUSH1 0x2 PUSH1 0x0 DUP4 PUSH20 0xFFFFFFFFFFFFFFFFFFFFFFFFFFFFFFFFFFFFFFFF AND PUSH20 0xFFFFFFFFFFFFFFFFFFFFFFFFFFFFFFFFFFFFFFFF AND DUP2 MSTORE PUSH1 0x20 ADD SWAP1 DUP2 MSTORE PUSH1 0x20 ADD PUSH1 0x0 KECCAK256 PUSH1 0x0 PUSH2 0x100 EXP DUP2 SLOAD DUP2 PUSH1 0xFF MUL NOT AND SWAP1 DUP4 ISZERO ISZERO MUL OR SWAP1 SSTORE POP PUSH32 0xFFA4E6181777692565CF28528FC88FD1516EA86B56DA075235FA575AF6A4B855 DUP2 PUSH1 0x40 MLOAD PUSH2 0x516 SWAP2 SWAP1 PUSH2 0x740 JUMP JUMPDEST PUSH1 0x40 MLOAD DUP1 SWAP2 SUB SWAP1 LOG1 POP JUMP JUMPDEST PUSH2 0x529 PUSH2 0x663 JUMP JUMPDEST PUSH20 0xFFFFFFFFFFFFFFFFFFFFFFFFFFFFFFFFFFFFFFFF AND PUSH2 0x547 PUSH2 0x1C8 JUMP JUMPDEST PUSH20 0xFFFFFFFFFFFFFFFFFFFFFFFFFFFFFFFFFFFFFFFF AND EQ PUSH2 0x59D JUMPI PUSH1 0x40 MLOAD PUSH32 0x8C379A000000000000000000000000000000000000000000000000000000000 DUP2 MSTORE PUSH1 0x4 ADD PUSH2 0x594 SWAP1 PUSH2 0x922 JUMP JUMPDEST PUSH1 0x40 MLOAD DUP1 SWAP2 SUB SWAP1 REVERT JUMPDEST JUMP JUMPDEST PUSH1 0x0 DUP1 PUSH1 0x0 SWAP1 SLOAD SWAP1 PUSH2 0x100 EXP SWAP1 DIV PUSH20 0xFFFFFFFFFFFFFFFFFFFFFFFFFFFFFFFFFFFFFFFF AND SWAP1 POP DUP2 PUSH1 0x0 DUP1 PUSH2 0x100 EXP DUP2 SLOAD DUP2 PUSH20 0xFFFFFFFFFFFFFFFFFFFFFFFFFFFFFFFFFFFFFFFF MUL NOT AND SWAP1 DUP4 PUSH20 0xFFFFFFFFFFFFFFFFFFFFFFFFFFFFFFFFFFFFFFFF AND MUL OR SWAP1 SSTORE POP DUP2 PUSH20 0xFFFFFFFFFFFFFFFFFFFFFFFFFFFFFFFFFFFFFFFF AND DUP2 PUSH20 0xFFFFFFFFFFFFFFFFFFFFFFFFFFFFFFFFFFFFFFFF AND PUSH32 0x8BE0079C531659141344CD1FD0A4F28419497F9722A3DAAFE3B4186F6B6457E0 PUSH1 0x40 MLOAD PUSH1 0x40 MLOAD DUP1 SWAP2 SUB SWAP1 LOG3 POP POP JUMP JUMPDEST PUSH1 0x0 CALLER SWAP1 POP SWAP1 JUMP JUMPDEST PUSH1 0x0 DUP1 REVERT JUMPDEST PUSH1 0x0 PUSH20 0xFFFFFFFFFFFFFFFFFFFFFFFFFFFFFFFFFFFFFFFF DUP3 AND SWAP1 POP SWAP2 SWAP1 POP JUMP JUMPDEST PUSH1 0x0 PUSH2 0x69B DUP3 PUSH2 0x670 JUMP JUMPDEST SWAP1 POP SWAP2 SWAP1 POP JUMP JUMPDEST PUSH2 0x6AB DUP2 PUSH2 0x690 JUMP JUMPDEST DUP2 EQ PUSH2 0x6B6 JUMPI PUSH1 0x0 DUP1 REVERT JUMPDEST POP JUMP JUMPDEST PUSH1 0x0 DUP2 CALLDATALOAD SWAP1 POP PUSH2 0x6C8 DUP2 PUSH2 0x6A2 JUMP JUMPDEST SWAP3 SWAP2 POP POP JUMP JUMPDEST PUSH1 0x0 PUSH1 0x20 DUP3 DUP5 SUB SLT ISZERO PUSH2 0x6E4 JUMPI PUSH2 0x6E3 PUSH2 0x66B JUMP JUMPDEST JUMPDEST PUSH1 0x0 PUSH2 0x6F2 DUP5 DUP3 DUP6 ADD PUSH2 0x6B9 JUMP JUMPDEST SWAP2 POP POP SWAP3 SWAP2 POP POP JUMP JUMPDEST PUSH1 0x0 DUP2 ISZERO ISZERO SWAP1 POP SWAP2 SWAP1 POP JUMP JUMPDEST PUSH2 0x710 DUP2 PUSH2 0x6FB JUMP JUMPDEST DUP3 MSTORE POP POP JUMP JUMPDEST PUSH1 0x0 PUSH1 0x20 DUP3 ADD SWAP1 POP PUSH2 0x72B PUSH1 0x0 DUP4 ADD DUP5 PUSH2 0x707 JUMP JUMPDEST SWAP3 SWAP2 POP POP JUMP JUMPDEST PUSH2 0x73A DUP2 PUSH2 0x690 JUMP JUMPDEST DUP3 MSTORE POP POP JUMP JUMPDEST PUSH1 0x0 PUSH1 0x20 DUP3 ADD SWAP1 POP PUSH2 0x755 PUSH1 0x0 DUP4 ADD DUP5 PUSH2 0x731 JUMP JUMPDEST SWAP3 SWAP2 POP POP JUMP JUMPDEST PUSH1 0x0 DUP3 DUP3 MSTORE PUSH1 0x20 DUP3 ADD SWAP1 POP SWAP3 SWAP2 POP POP JUMP JUMPDEST PUSH32 0x4164647265737320616C72656164792077686974656C69737465640000000000 PUSH1 0x0 DUP3 ADD MSTORE POP JUMP JUMPDEST PUSH1 0x0 PUSH2 0x7A2 PUSH1 0x1B DUP4 PUSH2 0x75B JUMP JUMPDEST SWAP2 POP PUSH2 0x7AD DUP3 PUSH2 0x76C JUMP JUMPDEST PUSH1 0x20 DUP3 ADD SWAP1 POP SWAP2 SWAP1 POP JUMP JUMPDEST PUSH1 0x0 PUSH1 0x20 DUP3 ADD SWAP1 POP DUP2 DUP2 SUB PUSH1 0x0 DUP4 ADD MSTORE PUSH2 0x7D1 DUP2 PUSH2 0x795 JUMP JUMPDEST SWAP1 POP SWAP2 SWAP1 POP JUMP JUMPDEST PUSH32 0x4164647265737320616C726561647920626C61636B6C69737465640000000000 PUSH1 0x0 DUP3 ADD MSTORE POP JUMP JUMPDEST PUSH1 0x0 PUSH2 0x80E PUSH1 0x1B DUP4 PUSH2 0x75B JUMP JUMPDEST SWAP2 POP PUSH2 0x819 DUP3 PUSH2 0x7D8 JUMP JUMPDEST PUSH1 0x20 DUP3 ADD SWAP1 POP SWAP2 SWAP1 POP JUMP JUMPDEST PUSH1 0x0 PUSH1 0x20 DUP3 ADD SWAP1 POP DUP2 DUP2 SUB PUSH1 0x0 DUP4 ADD MSTORE PUSH2 0x83D DUP2 PUSH2 0x801 JUMP JUMPDEST SWAP1 POP SWAP2 SWAP1 POP JUMP JUMPDEST PUSH32 0x4F776E61626C653A206E6577206F776E657220697320746865207A65726F2061 PUSH1 0x0 DUP3 ADD MSTORE PUSH32 0x6464726573730000000000000000000000000000000000000000000000000000 PUSH1 0x20 DUP3 ADD MSTORE POP JUMP JUMPDEST PUSH1 0x0 PUSH2 0x8A0 PUSH1 0x26 DUP4 PUSH2 0x75B JUMP JUMPDEST SWAP2 POP PUSH2 0x8AB DUP3 PUSH2 0x844 JUMP JUMPDEST PUSH1 0x40 DUP3 ADD SWAP1 POP SWAP2 SWAP1 POP JUMP JUMPDEST PUSH1 0x0 PUSH1 0x20 DUP3 ADD SWAP1 POP DUP2 DUP2 SUB PUSH1 0x0 DUP4 ADD MSTORE PUSH2 0x8CF DUP2 PUSH2 0x893 JUMP JUMPDEST SWAP1 POP SWAP2 SWAP1 POP JUMP JUMPDEST PUSH32 0x4F776E61626C653A2063616C6C6572206973206E6F7420746865206F776E6572 PUSH1 0x0 DUP3 ADD MSTORE POP JUMP JUMPDEST PUSH1 0x0 PUSH2 0x90C PUSH1 0x20 DUP4 PUSH2 0x75B JUMP JUMPDEST SWAP2 POP PUSH2 0x917 DUP3 PUSH2 0x8D6 JUMP JUMPDEST PUSH1 0x20 DUP3 ADD SWAP1 POP SWAP2 SWAP1 POP JUMP JUMPDEST PUSH1 0x0 PUSH1 0x20 DUP3 ADD SWAP1 POP DUP2 DUP2 SUB PUSH1 0x0 DUP4 ADD MSTORE PUSH2 0x93B DUP2 PUSH2 0x8FF JUMP JUMPDEST SWAP1 POP SWAP2 SWAP1 POP JUMP INVALID LOG2 PUSH5 0x6970667358 0x22 SLT KECCAK256 0xF 0xAE 0x28 KECCAK256 0x4E PUSH19 0x5ED2484B541DCD14BB0F48934F9AAD349C8DBF CALLDATASIZE 0xAF DUP1 0xB5 ORIGIN 0xC4 BYTE PUSH5 0x736F6C6343 STOP ADDMOD 0xD STOP CALLER "
				},
				"gasEstimates": {
					"creation": {
						"codeDepositCost": "484800",
						"executionCost": "infinite",
						"totalCost": "infinite"
					},
					"external": {
						"blacklist(address)": "infinite",
						"isBlackListed(address)": "2905",
						"isWhitelisted(address)": "2884",
						"owner()": "2567",
						"renounceOwnership()": "30421",
						"transferOwnership(address)": "30788",
						"whitelist(address)": "infinite"
					}
				},
				"methodIdentifiers": {
					"blacklist(address)": "f9f92be4",
					"isBlackListed(address)": "e47d6060",
					"isWhitelisted(address)": "3af32abf",
					"owner()": "8da5cb5b",
					"renounceOwnership()": "715018a6",
					"transferOwnership(address)": "f2fde38b",
					"whitelist(address)": "9b19251a"
				}
			},
			"storageLayout": {
				"storage": [
					{
						"astId": 7,
						"contract": "contracts/Admin.sol:Admin",
						"label": "_owner",
						"offset": 0,
						"slot": "0",
						"type": "t_address"
					},
					{
						"astId": 151,
						"contract": "contracts/Admin.sol:Admin",
						"label": "_whitelist",
						"offset": 0,
						"slot": "1",
						"type": "t_mapping(t_address,t_bool)"
					},
					{
						"astId": 155,
						"contract": "contracts/Admin.sol:Admin",
						"label": "_blacklist",
						"offset": 0,
						"slot": "2",
						"type": "t_mapping(t_address,t_bool)"
					}
				],
				"types": {
					"t_address": {
						"encoding": "inplace",
						"label": "address",
						"numberOfBytes": "20"
					},
					"t_bool": {
						"encoding": "inplace",
						"label": "bool",
						"numberOfBytes": "1"
					},
					"t_mapping(t_address,t_bool)": {
						"encoding": "mapping",
						"key": "t_address",
						"label": "mapping(address => bool)",
						"numberOfBytes": "32",
						"value": "t_bool"
					}
				}
			},
			"userdoc": {
				"kind": "user",
				"methods": {},
				"version": 1
			}
		}
	}
}