{
	"contracts/Send.sol": {
		"Exemples": {
			"abi": [
				{
					"inputs": [],
					"name": "send",
					"outputs": [],
					"stateMutability": "payable",
					"type": "function"
				}
			],
			"devdoc": {
				"kind": "dev",
				"methods": {},
				"version": 1
			},
			"evm": {
				"assembly": "    /* \"contracts/Send.sol\":62:295  contract Exemples {... */\n  mstore(0x40, 0x80)\n    /* \"contracts/Send.sol\":100:142  0xE73E34dc58E839eF58B64B3FC81F37BC864a9065 */\n  0xe73e34dc58e839ef58b64b3fc81f37bc864a9065\n    /* \"contracts/Send.sol\":87:142  address to = 0xE73E34dc58E839eF58B64B3FC81F37BC864a9065 */\n  0x00\n  dup1\n  0x0100\n  exp\n  dup2\n  sload\n  dup2\n  0xffffffffffffffffffffffffffffffffffffffff\n  mul\n  not\n  and\n  swap1\n  dup4\n  0xffffffffffffffffffffffffffffffffffffffff\n  and\n  mul\n  or\n  swap1\n  sstore\n  pop\n    /* \"contracts/Send.sol\":62:295  contract Exemples {... */\n  callvalue\n  dup1\n  iszero\n  tag_1\n  jumpi\n  0x00\n  dup1\n  revert\ntag_1:\n  pop\n  dataSize(sub_0)\n  dup1\n  dataOffset(sub_0)\n  0x00\n  codecopy\n  0x00\n  return\nstop\n\nsub_0: assembly {\n        /* \"contracts/Send.sol\":62:295  contract Exemples {... */\n      mstore(0x40, 0x80)\n      jumpi(tag_1, lt(calldatasize, 0x04))\n      shr(0xe0, calldataload(0x00))\n      dup1\n      0xb46300ec\n      eq\n      tag_2\n      jumpi\n    tag_1:\n      0x00\n      dup1\n      revert\n        /* \"contracts/Send.sol\":150:293  function send() public payable {... */\n    tag_2:\n      tag_3\n      tag_4\n      jump\t// in\n    tag_3:\n      stop\n    tag_4:\n        /* \"contracts/Send.sol\":192:204  bool success */\n      0x00\n        /* \"contracts/Send.sol\":210:212  to */\n      dup1\n      0x00\n      swap1\n      sload\n      swap1\n      0x0100\n      exp\n      swap1\n      div\n      0xffffffffffffffffffffffffffffffffffffffff\n      and\n        /* \"contracts/Send.sol\":210:217  to.call */\n      0xffffffffffffffffffffffffffffffffffffffff\n      and\n        /* \"contracts/Send.sol\":225:234  msg.value */\n      callvalue\n        /* \"contracts/Send.sol\":210:240  to.call{value: msg.value }(\"\") */\n      mload(0x40)\n      tag_6\n      swap1\n      tag_7\n      jump\t// in\n    tag_6:\n      0x00\n      mload(0x40)\n      dup1\n      dup4\n      sub\n      dup2\n      dup6\n      dup8\n      gas\n      call\n      swap3\n      pop\n      pop\n      pop\n      returndatasize\n      dup1\n      0x00\n      dup2\n      eq\n      tag_10\n      jumpi\n      mload(0x40)\n      swap2\n      pop\n      and(add(returndatasize, 0x3f), not(0x1f))\n      dup3\n      add\n      0x40\n      mstore\n      returndatasize\n      dup3\n      mstore\n      returndatasize\n      0x00\n      0x20\n      dup5\n      add\n      returndatacopy\n      jump(tag_9)\n    tag_10:\n      0x60\n      swap2\n      pop\n    tag_9:\n      pop\n        /* \"contracts/Send.sol\":191:240  (bool success, ) = to.call{value: msg.value }(\"\") */\n      pop\n      swap1\n      pop\n        /* \"contracts/Send.sol\":258:265  success */\n      dup1\n        /* \"contracts/Send.sol\":250:286  require(success, \"Transfert echoue\") */\n      tag_11\n      jumpi\n      mload(0x40)\n      0x08c379a000000000000000000000000000000000000000000000000000000000\n      dup2\n      mstore\n      0x04\n      add\n      tag_12\n      swap1\n      tag_13\n      jump\t// in\n    tag_12:\n      mload(0x40)\n      dup1\n      swap2\n      sub\n      swap1\n      revert\n    tag_11:\n        /* \"contracts/Send.sol\":181:293  {... */\n      pop\n        /* \"contracts/Send.sol\":150:293  function send() public payable {... */\n      jump\t// out\n        /* \"#utility.yul\":7:154   */\n    tag_14:\n        /* \"#utility.yul\":108:119   */\n      0x00\n        /* \"#utility.yul\":145:148   */\n      dup2\n        /* \"#utility.yul\":130:148   */\n      swap1\n      pop\n        /* \"#utility.yul\":7:154   */\n      swap3\n      swap2\n      pop\n      pop\n      jump\t// out\n        /* \"#utility.yul\":160:274   */\n    tag_15:\n      pop\n      jump\t// out\n        /* \"#utility.yul\":280:678   */\n    tag_16:\n        /* \"#utility.yul\":439:442   */\n      0x00\n        /* \"#utility.yul\":460:543   */\n      tag_24\n        /* \"#utility.yul\":541:542   */\n      0x00\n        /* \"#utility.yul\":536:539   */\n      dup4\n        /* \"#utility.yul\":460:543   */\n      tag_14\n      jump\t// in\n    tag_24:\n        /* \"#utility.yul\":453:543   */\n      swap2\n      pop\n        /* \"#utility.yul\":552:645   */\n      tag_25\n        /* \"#utility.yul\":641:644   */\n      dup3\n        /* \"#utility.yul\":552:645   */\n      tag_15\n      jump\t// in\n    tag_25:\n        /* \"#utility.yul\":670:671   */\n      0x00\n        /* \"#utility.yul\":665:668   */\n      dup3\n        /* \"#utility.yul\":661:672   */\n      add\n        /* \"#utility.yul\":654:672   */\n      swap1\n      pop\n        /* \"#utility.yul\":280:678   */\n      swap2\n      swap1\n      pop\n      jump\t// out\n        /* \"#utility.yul\":684:1063   */\n    tag_7:\n        /* \"#utility.yul\":868:871   */\n      0x00\n        /* \"#utility.yul\":890:1037   */\n      tag_27\n        /* \"#utility.yul\":1033:1036   */\n      dup3\n        /* \"#utility.yul\":890:1037   */\n      tag_16\n      jump\t// in\n    tag_27:\n        /* \"#utility.yul\":883:1037   */\n      swap2\n      pop\n        /* \"#utility.yul\":1054:1057   */\n      dup2\n        /* \"#utility.yul\":1047:1057   */\n      swap1\n      pop\n        /* \"#utility.yul\":684:1063   */\n      swap2\n      swap1\n      pop\n      jump\t// out\n        /* \"#utility.yul\":1069:1238   */\n    tag_17:\n        /* \"#utility.yul\":1153:1164   */\n      0x00\n        /* \"#utility.yul\":1187:1193   */\n      dup3\n        /* \"#utility.yul\":1182:1185   */\n      dup3\n        /* \"#utility.yul\":1175:1194   */\n      mstore\n        /* \"#utility.yul\":1227:1231   */\n      0x20\n        /* \"#utility.yul\":1222:1225   */\n      dup3\n        /* \"#utility.yul\":1218:1232   */\n      add\n        /* \"#utility.yul\":1203:1232   */\n      swap1\n      pop\n        /* \"#utility.yul\":1069:1238   */\n      swap3\n      swap2\n      pop\n      pop\n      jump\t// out\n        /* \"#utility.yul\":1244:1410   */\n    tag_18:\n        /* \"#utility.yul\":1384:1402   */\n      0x5472616e7366657274206563686f756500000000000000000000000000000000\n        /* \"#utility.yul\":1380:1381   */\n      0x00\n        /* \"#utility.yul\":1372:1378   */\n      dup3\n        /* \"#utility.yul\":1368:1382   */\n      add\n        /* \"#utility.yul\":1361:1403   */\n      mstore\n        /* \"#utility.yul\":1244:1410   */\n      pop\n      jump\t// out\n        /* \"#utility.yul\":1416:1782   */\n    tag_19:\n        /* \"#utility.yul\":1558:1561   */\n      0x00\n        /* \"#utility.yul\":1579:1646   */\n      tag_31\n        /* \"#utility.yul\":1643:1645   */\n      0x10\n        /* \"#utility.yul\":1638:1641   */\n      dup4\n        /* \"#utility.yul\":1579:1646   */\n      tag_17\n      jump\t// in\n    tag_31:\n        /* \"#utility.yul\":1572:1646   */\n      swap2\n      pop\n        /* \"#utility.yul\":1655:1748   */\n      tag_32\n        /* \"#utility.yul\":1744:1747   */\n      dup3\n        /* \"#utility.yul\":1655:1748   */\n      tag_18\n      jump\t// in\n    tag_32:\n        /* \"#utility.yul\":1773:1775   */\n      0x20\n        /* \"#utility.yul\":1768:1771   */\n      dup3\n        /* \"#utility.yul\":1764:1776   */\n      add\n        /* \"#utility.yul\":1757:1776   */\n      swap1\n      pop\n        /* \"#utility.yul\":1416:1782   */\n      swap2\n      swap1\n      pop\n      jump\t// out\n        /* \"#utility.yul\":1788:2207   */\n    tag_13:\n        /* \"#utility.yul\":1954:1958   */\n      0x00\n        /* \"#utility.yul\":1992:1994   */\n      0x20\n        /* \"#utility.yul\":1981:1990   */\n      dup3\n        /* \"#utility.yul\":1977:1995   */\n      add\n        /* \"#utility.yul\":1969:1995   */\n      swap1\n      pop\n        /* \"#utility.yul\":2041:2050   */\n      dup2\n        /* \"#utility.yul\":2035:2039   */\n      dup2\n        /* \"#utility.yul\":2031:2051   */\n      sub\n        /* \"#utility.yul\":2027:2028   */\n      0x00\n        /* \"#utility.yul\":2016:2025   */\n      dup4\n        /* \"#utility.yul\":2012:2029   */\n      add\n        /* \"#utility.yul\":2005:2052   */\n      mstore\n        /* \"#utility.yul\":2069:2200   */\n      tag_34\n        /* \"#utility.yul\":2195:2199   */\n      dup2\n        /* \"#utility.yul\":2069:2200   */\n      tag_19\n      jump\t// in\n    tag_34:\n        /* \"#utility.yul\":2061:2200   */\n      swap1\n      pop\n        /* \"#utility.yul\":1788:2207   */\n      swap2\n      swap1\n      pop\n      jump\t// out\n\n    auxdata: 0xa2646970667358221220fbb3d0a779bd87830d86a7b2fb187c4fe0750a3417a8f0fc1eefaf3cf1000a4c64736f6c634300080d0033\n}\n",
				"bytecode": {
					"linkReferences": {},
					"object": "608060405273e73e34dc58e839ef58b64b3fc81f37bc864a90656000806101000a81548173ffffffffffffffffffffffffffffffffffffffff021916908373ffffffffffffffffffffffffffffffffffffffff16021790555034801561006457600080fd5b506101f6806100746000396000f3fe60806040526004361061001e5760003560e01c8063b46300ec14610023575b600080fd5b61002b61002d565b005b60008060009054906101000a900473ffffffffffffffffffffffffffffffffffffffff1673ffffffffffffffffffffffffffffffffffffffff16346040516100749061012e565b60006040518083038185875af1925050503d80600081146100b1576040519150601f19603f3d011682016040523d82523d6000602084013e6100b6565b606091505b50509050806100fa576040517f08c379a00000000000000000000000000000000000000000000000000000000081526004016100f1906101a0565b60405180910390fd5b50565b600081905092915050565b50565b60006101186000836100fd565b915061012382610108565b600082019050919050565b60006101398261010b565b9150819050919050565b600082825260208201905092915050565b7f5472616e7366657274206563686f756500000000000000000000000000000000600082015250565b600061018a601083610143565b915061019582610154565b602082019050919050565b600060208201905081810360008301526101b98161017d565b905091905056fea2646970667358221220fbb3d0a779bd87830d86a7b2fb187c4fe0750a3417a8f0fc1eefaf3cf1000a4c64736f6c634300080d0033",
					"opcodes": "PUSH1 0x80 PUSH1 0x40 MSTORE PUSH20 0xE73E34DC58E839EF58B64B3FC81F37BC864A9065 PUSH1 0x0 DUP1 PUSH2 0x100 EXP DUP2 SLOAD DUP2 PUSH20 0xFFFFFFFFFFFFFFFFFFFFFFFFFFFFFFFFFFFFFFFF MUL NOT AND SWAP1 DUP4 PUSH20 0xFFFFFFFFFFFFFFFFFFFFFFFFFFFFFFFFFFFFFFFF AND MUL OR SWAP1 SSTORE POP CALLVALUE DUP1 ISZERO PUSH2 0x64 JUMPI PUSH1 0x0 DUP1 REVERT JUMPDEST POP PUSH2 0x1F6 DUP1 PUSH2 0x74 PUSH1 0x0 CODECOPY PUSH1 0x0 RETURN INVALID PUSH1 0x80 PUSH1 0x40 MSTORE PUSH1 0x4 CALLDATASIZE LT PUSH2 0x1E JUMPI PUSH1 0x0 CALLDATALOAD PUSH1 0xE0 SHR DUP1 PUSH4 0xB46300EC EQ PUSH2 0x23 JUMPI JUMPDEST PUSH1 0x0 DUP1 REVERT JUMPDEST PUSH2 0x2B PUSH2 0x2D JUMP JUMPDEST STOP JUMPDEST PUSH1 0x0 DUP1 PUSH1 0x0 SWAP1 SLOAD SWAP1 PUSH2 0x100 EXP SWAP1 DIV PUSH20 0xFFFFFFFFFFFFFFFFFFFFFFFFFFFFFFFFFFFFFFFF AND PUSH20 0xFFFFFFFFFFFFFFFFFFFFFFFFFFFFFFFFFFFFFFFF AND CALLVALUE PUSH1 0x40 MLOAD PUSH2 0x74 SWAP1 PUSH2 0x12E JUMP JUMPDEST PUSH1 0x0 PUSH1 0x40 MLOAD DUP1 DUP4 SUB DUP2 DUP6 DUP8 GAS CALL SWAP3 POP POP POP RETURNDATASIZE DUP1 PUSH1 0x0 DUP2 EQ PUSH2 0xB1 JUMPI PUSH1 0x40 MLOAD SWAP2 POP PUSH1 0x1F NOT PUSH1 0x3F RETURNDATASIZE ADD AND DUP3 ADD PUSH1 0x40 MSTORE RETURNDATASIZE DUP3 MSTORE RETURNDATASIZE PUSH1 0x0 PUSH1 0x20 DUP5 ADD RETURNDATACOPY PUSH2 0xB6 JUMP JUMPDEST PUSH1 0x60 SWAP2 POP JUMPDEST POP POP SWAP1 POP DUP1 PUSH2 0xFA JUMPI PUSH1 0x40 MLOAD PUSH32 0x8C379A000000000000000000000000000000000000000000000000000000000 DUP2 MSTORE PUSH1 0x4 ADD PUSH2 0xF1 SWAP1 PUSH2 0x1A0 JUMP JUMPDEST PUSH1 0x40 MLOAD DUP1 SWAP2 SUB SWAP1 REVERT JUMPDEST POP JUMP JUMPDEST PUSH1 0x0 DUP2 SWAP1 POP SWAP3 SWAP2 POP POP JUMP JUMPDEST POP JUMP JUMPDEST PUSH1 0x0 PUSH2 0x118 PUSH1 0x0 DUP4 PUSH2 0xFD JUMP JUMPDEST SWAP2 POP PUSH2 0x123 DUP3 PUSH2 0x108 JUMP JUMPDEST PUSH1 0x0 DUP3 ADD SWAP1 POP SWAP2 SWAP1 POP JUMP JUMPDEST PUSH1 0x0 PUSH2 0x139 DUP3 PUSH2 0x10B JUMP JUMPDEST SWAP2 POP DUP2 SWAP1 POP SWAP2 SWAP1 POP JUMP JUMPDEST PUSH1 0x0 DUP3 DUP3 MSTORE PUSH1 0x20 DUP3 ADD SWAP1 POP SWAP3 SWAP2 POP POP JUMP JUMPDEST PUSH32 0x5472616E7366657274206563686F756500000000000000000000000000000000 PUSH1 0x0 DUP3 ADD MSTORE POP JUMP JUMPDEST PUSH1 0x0 PUSH2 0x18A PUSH1 0x10 DUP4 PUSH2 0x143 JUMP JUMPDEST SWAP2 POP PUSH2 0x195 DUP3 PUSH2 0x154 JUMP JUMPDEST PUSH1 0x20 DUP3 ADD SWAP1 POP SWAP2 SWAP1 POP JUMP JUMPDEST PUSH1 0x0 PUSH1 0x20 DUP3 ADD SWAP1 POP DUP2 DUP2 SUB PUSH1 0x0 DUP4 ADD MSTORE PUSH2 0x1B9 DUP2 PUSH2 0x17D JUMP JUMPDEST SWAP1 POP SWAP2 SWAP1 POP JUMP INVALID LOG2 PUSH5 0x6970667358 0x22 SLT KECCAK256 0xFB 0xB3 0xD0 0xA7 PUSH26 0xBD87830D86A7B2FB187C4FE0750A3417A8F0FC1EEFAF3CF1000A 0x4C PUSH5 0x736F6C6343 STOP ADDMOD 0xD STOP CALLER "
				},
				"gasEstimates": {
					"creation": {
						"codeDepositCost": "100400",
						"executionCost": "24414",
						"totalCost": "124814"
					},
					"external": {
						"send()": "infinite"
					}
				},
				"methodIdentifiers": {
					"send()": "b46300ec"
				}
			},
			"storageLayout": {
				"storage": [
					{
						"astId": 4,
						"contract": "contracts/Send.sol:Exemples",
						"label": "to",
						"offset": 0,
						"slot": "0",
						"type": "t_address"
					}
				],
				"types": {
					"t_address": {
						"encoding": "inplace",
						"label": "address",
						"numberOfBytes": "20"
					}
				}
			},
			"userdoc": {
				"kind": "user",
				"methods": {},
				"version": 1
			}
		}
	}
}