{
	"contracts/Random.sol": {
		"Random": {
			"abi": [
				{
					"inputs": [],
					"name": "random",
					"outputs": [
						{
							"internalType": "uint256",
							"name": "",
							"type": "uint256"
						}
					],
					"stateMutability": "nonpayable",
					"type": "function"
				}
			],
			"devdoc": {
				"kind": "dev",
				"methods": {},
				"version": 1
			},
			"evm": {
				"assembly": "    /* \"contracts/Random.sol\":63:262  contract Random {... */\n  mstore(0x40, 0x80)\n  callvalue\n  dup1\n  iszero\n  tag_1\n  jumpi\n  0x00\n  dup1\n  revert\ntag_1:\n  pop\n  dataSize(sub_0)\n  dup1\n  dataOffset(sub_0)\n  0x00\n  codecopy\n  0x00\n  return\nstop\n\nsub_0: assembly {\n        /* \"contracts/Random.sol\":63:262  contract Random {... */\n      mstore(0x40, 0x80)\n      callvalue\n      dup1\n      iszero\n      tag_1\n      jumpi\n      0x00\n      dup1\n      revert\n    tag_1:\n      pop\n      jumpi(tag_2, lt(calldatasize, 0x04))\n      shr(0xe0, calldataload(0x00))\n      dup1\n      0x5ec01e4d\n      eq\n      tag_3\n      jumpi\n    tag_2:\n      0x00\n      dup1\n      revert\n        /* \"contracts/Random.sol\":103:260  function random() public returns (uint) {... */\n    tag_3:\n      tag_4\n      tag_5\n      jump\t// in\n    tag_4:\n      mload(0x40)\n      tag_6\n      swap2\n      swap1\n      tag_7\n      jump\t// in\n    tag_6:\n      mload(0x40)\n      dup1\n      swap2\n      sub\n      swap1\n      return\n    tag_5:\n        /* \"contracts/Random.sol\":137:141  uint */\n      0x00\n        /* \"contracts/Random.sol\":153:158  nonce */\n      dup1\n      0x00\n        /* \"contracts/Random.sol\":153:160  nonce++ */\n      dup2\n      sload\n      dup1\n      swap3\n      swap2\n      swap1\n      tag_9\n      swap1\n      tag_10\n      jump\t// in\n    tag_9:\n      swap2\n      swap1\n      pop\n      sstore\n      pop\n        /* \"contracts/Random.sol\":250:253  100 */\n      0x64\n        /* \"contracts/Random.sol\":210:225  block.timestamp */\n      timestamp\n        /* \"contracts/Random.sol\":227:237  msg.sender */\n      caller\n        /* \"contracts/Random.sol\":239:244  nonce */\n      sload(0x00)\n        /* \"contracts/Random.sol\":193:245  abi.encodePacked(block.timestamp, msg.sender, nonce) */\n      add(0x20, mload(0x40))\n      tag_11\n      swap4\n      swap3\n      swap2\n      swap1\n      tag_12\n      jump\t// in\n    tag_11:\n      mload(0x40)\n      0x20\n      dup2\n      dup4\n      sub\n      sub\n      dup2\n      mstore\n      swap1\n      0x40\n      mstore\n        /* \"contracts/Random.sol\":183:246  keccak256(abi.encodePacked(block.timestamp, msg.sender, nonce)) */\n      dup1\n      mload\n      swap1\n      0x20\n      add\n      keccak256\n        /* \"contracts/Random.sol\":177:247  uint (keccak256(abi.encodePacked(block.timestamp, msg.sender, nonce))) */\n      0x00\n      shr\n        /* \"contracts/Random.sol\":177:253  uint (keccak256(abi.encodePacked(block.timestamp, msg.sender, nonce))) % 100 */\n      tag_13\n      swap2\n      swap1\n      tag_14\n      jump\t// in\n    tag_13:\n        /* \"contracts/Random.sol\":170:253  return uint (keccak256(abi.encodePacked(block.timestamp, msg.sender, nonce))) % 100 */\n      swap1\n      pop\n        /* \"contracts/Random.sol\":103:260  function random() public returns (uint) {... */\n      swap1\n      jump\t// out\n        /* \"#utility.yul\":7:84   */\n    tag_15:\n        /* \"#utility.yul\":44:51   */\n      0x00\n        /* \"#utility.yul\":73:78   */\n      dup2\n        /* \"#utility.yul\":62:78   */\n      swap1\n      pop\n        /* \"#utility.yul\":7:84   */\n      swap2\n      swap1\n      pop\n      jump\t// out\n        /* \"#utility.yul\":90:208   */\n    tag_16:\n        /* \"#utility.yul\":177:201   */\n      tag_30\n        /* \"#utility.yul\":195:200   */\n      dup2\n        /* \"#utility.yul\":177:201   */\n      tag_15\n      jump\t// in\n    tag_30:\n        /* \"#utility.yul\":172:175   */\n      dup3\n        /* \"#utility.yul\":165:202   */\n      mstore\n        /* \"#utility.yul\":90:208   */\n      pop\n      pop\n      jump\t// out\n        /* \"#utility.yul\":214:436   */\n    tag_7:\n        /* \"#utility.yul\":307:311   */\n      0x00\n        /* \"#utility.yul\":345:347   */\n      0x20\n        /* \"#utility.yul\":334:343   */\n      dup3\n        /* \"#utility.yul\":330:348   */\n      add\n        /* \"#utility.yul\":322:348   */\n      swap1\n      pop\n        /* \"#utility.yul\":358:429   */\n      tag_32\n        /* \"#utility.yul\":426:427   */\n      0x00\n        /* \"#utility.yul\":415:424   */\n      dup4\n        /* \"#utility.yul\":411:428   */\n      add\n        /* \"#utility.yul\":402:408   */\n      dup5\n        /* \"#utility.yul\":358:429   */\n      tag_16\n      jump\t// in\n    tag_32:\n        /* \"#utility.yul\":214:436   */\n      swap3\n      swap2\n      pop\n      pop\n      jump\t// out\n        /* \"#utility.yul\":442:622   */\n    tag_17:\n        /* \"#utility.yul\":490:567   */\n      0x4e487b7100000000000000000000000000000000000000000000000000000000\n        /* \"#utility.yul\":487:488   */\n      0x00\n        /* \"#utility.yul\":480:568   */\n      mstore\n        /* \"#utility.yul\":587:591   */\n      0x11\n        /* \"#utility.yul\":584:585   */\n      0x04\n        /* \"#utility.yul\":577:592   */\n      mstore\n        /* \"#utility.yul\":611:615   */\n      0x24\n        /* \"#utility.yul\":608:609   */\n      0x00\n        /* \"#utility.yul\":601:616   */\n      revert\n        /* \"#utility.yul\":628:861   */\n    tag_10:\n        /* \"#utility.yul\":667:670   */\n      0x00\n        /* \"#utility.yul\":690:714   */\n      tag_35\n        /* \"#utility.yul\":708:713   */\n      dup3\n        /* \"#utility.yul\":690:714   */\n      tag_15\n      jump\t// in\n    tag_35:\n        /* \"#utility.yul\":681:714   */\n      swap2\n      pop\n        /* \"#utility.yul\":736:802   */\n      0xffffffffffffffffffffffffffffffffffffffffffffffffffffffffffffffff\n        /* \"#utility.yul\":729:734   */\n      dup3\n        /* \"#utility.yul\":726:803   */\n      sub\n        /* \"#utility.yul\":723:826   */\n      tag_36\n      jumpi\n        /* \"#utility.yul\":806:824   */\n      tag_37\n      tag_17\n      jump\t// in\n    tag_37:\n        /* \"#utility.yul\":723:826   */\n    tag_36:\n        /* \"#utility.yul\":853:854   */\n      0x01\n        /* \"#utility.yul\":846:851   */\n      dup3\n        /* \"#utility.yul\":842:855   */\n      add\n        /* \"#utility.yul\":835:855   */\n      swap1\n      pop\n        /* \"#utility.yul\":628:861   */\n      swap2\n      swap1\n      pop\n      jump\t// out\n        /* \"#utility.yul\":867:946   */\n    tag_18:\n        /* \"#utility.yul\":906:913   */\n      0x00\n        /* \"#utility.yul\":935:940   */\n      dup2\n        /* \"#utility.yul\":924:940   */\n      swap1\n      pop\n        /* \"#utility.yul\":867:946   */\n      swap2\n      swap1\n      pop\n      jump\t// out\n        /* \"#utility.yul\":952:1109   */\n    tag_19:\n        /* \"#utility.yul\":1057:1102   */\n      tag_40\n        /* \"#utility.yul\":1077:1101   */\n      tag_41\n        /* \"#utility.yul\":1095:1100   */\n      dup3\n        /* \"#utility.yul\":1077:1101   */\n      tag_15\n      jump\t// in\n    tag_41:\n        /* \"#utility.yul\":1057:1102   */\n      tag_18\n      jump\t// in\n    tag_40:\n        /* \"#utility.yul\":1052:1055   */\n      dup3\n        /* \"#utility.yul\":1045:1103   */\n      mstore\n        /* \"#utility.yul\":952:1109   */\n      pop\n      pop\n      jump\t// out\n        /* \"#utility.yul\":1115:1241   */\n    tag_20:\n        /* \"#utility.yul\":1152:1159   */\n      0x00\n        /* \"#utility.yul\":1192:1234   */\n      0xffffffffffffffffffffffffffffffffffffffff\n        /* \"#utility.yul\":1185:1190   */\n      dup3\n        /* \"#utility.yul\":1181:1235   */\n      and\n        /* \"#utility.yul\":1170:1235   */\n      swap1\n      pop\n        /* \"#utility.yul\":1115:1241   */\n      swap2\n      swap1\n      pop\n      jump\t// out\n        /* \"#utility.yul\":1247:1343   */\n    tag_21:\n        /* \"#utility.yul\":1284:1291   */\n      0x00\n        /* \"#utility.yul\":1313:1337   */\n      tag_44\n        /* \"#utility.yul\":1331:1336   */\n      dup3\n        /* \"#utility.yul\":1313:1337   */\n      tag_20\n      jump\t// in\n    tag_44:\n        /* \"#utility.yul\":1302:1337   */\n      swap1\n      pop\n        /* \"#utility.yul\":1247:1343   */\n      swap2\n      swap1\n      pop\n      jump\t// out\n        /* \"#utility.yul\":1349:1443   */\n    tag_22:\n        /* \"#utility.yul\":1382:1390   */\n      0x00\n        /* \"#utility.yul\":1430:1435   */\n      dup2\n        /* \"#utility.yul\":1426:1428   */\n      0x60\n        /* \"#utility.yul\":1422:1436   */\n      shl\n        /* \"#utility.yul\":1401:1436   */\n      swap1\n      pop\n        /* \"#utility.yul\":1349:1443   */\n      swap2\n      swap1\n      pop\n      jump\t// out\n        /* \"#utility.yul\":1449:1543   */\n    tag_23:\n        /* \"#utility.yul\":1488:1495   */\n      0x00\n        /* \"#utility.yul\":1517:1537   */\n      tag_47\n        /* \"#utility.yul\":1531:1536   */\n      dup3\n        /* \"#utility.yul\":1517:1537   */\n      tag_22\n      jump\t// in\n    tag_47:\n        /* \"#utility.yul\":1506:1537   */\n      swap1\n      pop\n        /* \"#utility.yul\":1449:1543   */\n      swap2\n      swap1\n      pop\n      jump\t// out\n        /* \"#utility.yul\":1549:1649   */\n    tag_24:\n        /* \"#utility.yul\":1588:1595   */\n      0x00\n        /* \"#utility.yul\":1617:1643   */\n      tag_49\n        /* \"#utility.yul\":1637:1642   */\n      dup3\n        /* \"#utility.yul\":1617:1643   */\n      tag_23\n      jump\t// in\n    tag_49:\n        /* \"#utility.yul\":1606:1643   */\n      swap1\n      pop\n        /* \"#utility.yul\":1549:1649   */\n      swap2\n      swap1\n      pop\n      jump\t// out\n        /* \"#utility.yul\":1655:1812   */\n    tag_25:\n        /* \"#utility.yul\":1760:1805   */\n      tag_51\n        /* \"#utility.yul\":1780:1804   */\n      tag_52\n        /* \"#utility.yul\":1798:1803   */\n      dup3\n        /* \"#utility.yul\":1780:1804   */\n      tag_21\n      jump\t// in\n    tag_52:\n        /* \"#utility.yul\":1760:1805   */\n      tag_24\n      jump\t// in\n    tag_51:\n        /* \"#utility.yul\":1755:1758   */\n      dup3\n        /* \"#utility.yul\":1748:1806   */\n      mstore\n        /* \"#utility.yul\":1655:1812   */\n      pop\n      pop\n      jump\t// out\n        /* \"#utility.yul\":1818:2356   */\n    tag_12:\n        /* \"#utility.yul\":1986:1989   */\n      0x00\n        /* \"#utility.yul\":2001:2076   */\n      tag_54\n        /* \"#utility.yul\":2072:2075   */\n      dup3\n        /* \"#utility.yul\":2063:2069   */\n      dup7\n        /* \"#utility.yul\":2001:2076   */\n      tag_19\n      jump\t// in\n    tag_54:\n        /* \"#utility.yul\":2101:2103   */\n      0x20\n        /* \"#utility.yul\":2096:2099   */\n      dup3\n        /* \"#utility.yul\":2092:2104   */\n      add\n        /* \"#utility.yul\":2085:2104   */\n      swap2\n      pop\n        /* \"#utility.yul\":2114:2189   */\n      tag_55\n        /* \"#utility.yul\":2185:2188   */\n      dup3\n        /* \"#utility.yul\":2176:2182   */\n      dup6\n        /* \"#utility.yul\":2114:2189   */\n      tag_25\n      jump\t// in\n    tag_55:\n        /* \"#utility.yul\":2214:2216   */\n      0x14\n        /* \"#utility.yul\":2209:2212   */\n      dup3\n        /* \"#utility.yul\":2205:2217   */\n      add\n        /* \"#utility.yul\":2198:2217   */\n      swap2\n      pop\n        /* \"#utility.yul\":2227:2302   */\n      tag_56\n        /* \"#utility.yul\":2298:2301   */\n      dup3\n        /* \"#utility.yul\":2289:2295   */\n      dup5\n        /* \"#utility.yul\":2227:2302   */\n      tag_19\n      jump\t// in\n    tag_56:\n        /* \"#utility.yul\":2327:2329   */\n      0x20\n        /* \"#utility.yul\":2322:2325   */\n      dup3\n        /* \"#utility.yul\":2318:2330   */\n      add\n        /* \"#utility.yul\":2311:2330   */\n      swap2\n      pop\n        /* \"#utility.yul\":2347:2350   */\n      dup2\n        /* \"#utility.yul\":2340:2350   */\n      swap1\n      pop\n        /* \"#utility.yul\":1818:2356   */\n      swap5\n      swap4\n      pop\n      pop\n      pop\n      pop\n      jump\t// out\n        /* \"#utility.yul\":2362:2542   */\n    tag_26:\n        /* \"#utility.yul\":2410:2487   */\n      0x4e487b7100000000000000000000000000000000000000000000000000000000\n        /* \"#utility.yul\":2407:2408   */\n      0x00\n        /* \"#utility.yul\":2400:2488   */\n      mstore\n        /* \"#utility.yul\":2507:2511   */\n      0x12\n        /* \"#utility.yul\":2504:2505   */\n      0x04\n        /* \"#utility.yul\":2497:2512   */\n      mstore\n        /* \"#utility.yul\":2531:2535   */\n      0x24\n        /* \"#utility.yul\":2528:2529   */\n      0x00\n        /* \"#utility.yul\":2521:2536   */\n      revert\n        /* \"#utility.yul\":2548:2724   */\n    tag_14:\n        /* \"#utility.yul\":2580:2581   */\n      0x00\n        /* \"#utility.yul\":2597:2617   */\n      tag_59\n        /* \"#utility.yul\":2615:2616   */\n      dup3\n        /* \"#utility.yul\":2597:2617   */\n      tag_15\n      jump\t// in\n    tag_59:\n        /* \"#utility.yul\":2592:2617   */\n      swap2\n      pop\n        /* \"#utility.yul\":2631:2651   */\n      tag_60\n        /* \"#utility.yul\":2649:2650   */\n      dup4\n        /* \"#utility.yul\":2631:2651   */\n      tag_15\n      jump\t// in\n    tag_60:\n        /* \"#utility.yul\":2626:2651   */\n      swap3\n      pop\n        /* \"#utility.yul\":2670:2671   */\n      dup3\n        /* \"#utility.yul\":2660:2695   */\n      tag_61\n      jumpi\n        /* \"#utility.yul\":2675:2693   */\n      tag_62\n      tag_26\n      jump\t// in\n    tag_62:\n        /* \"#utility.yul\":2660:2695   */\n    tag_61:\n        /* \"#utility.yul\":2716:2717   */\n      dup3\n        /* \"#utility.yul\":2713:2714   */\n      dup3\n        /* \"#utility.yul\":2709:2718   */\n      mod\n        /* \"#utility.yul\":2704:2718   */\n      swap1\n      pop\n        /* \"#utility.yul\":2548:2724   */\n      swap3\n      swap2\n      pop\n      pop\n      jump\t// out\n\n    auxdata: 0xa2646970667358221220663e8a653df0a69e3ef99e26c7074f0193f0bf89507123ab3c0bbd03f407c12a64736f6c634300080d0033\n}\n",
				"bytecode": {
					"linkReferences": {},
					"object": "608060405234801561001057600080fd5b506102c1806100206000396000f3fe608060405234801561001057600080fd5b506004361061002b5760003560e01c80635ec01e4d14610030575b600080fd5b61003861004e565b60405161004591906100c1565b60405180910390f35b60008060008154809291906100629061010b565b919050555060644233600054604051602001610080939291906101ee565b6040516020818303038152906040528051906020012060001c6100a3919061025a565b905090565b6000819050919050565b6100bb816100a8565b82525050565b60006020820190506100d660008301846100b2565b92915050565b7f4e487b7100000000000000000000000000000000000000000000000000000000600052601160045260246000fd5b6000610116826100a8565b91507fffffffffffffffffffffffffffffffffffffffffffffffffffffffffffffffff8203610148576101476100dc565b5b600182019050919050565b6000819050919050565b61016e610169826100a8565b610153565b82525050565b600073ffffffffffffffffffffffffffffffffffffffff82169050919050565b600061019f82610174565b9050919050565b60008160601b9050919050565b60006101be826101a6565b9050919050565b60006101d0826101b3565b9050919050565b6101e86101e382610194565b6101c5565b82525050565b60006101fa828661015d565b60208201915061020a82856101d7565b60148201915061021a828461015d565b602082019150819050949350505050565b7f4e487b7100000000000000000000000000000000000000000000000000000000600052601260045260246000fd5b6000610265826100a8565b9150610270836100a8565b9250826102805761027f61022b565b5b82820690509291505056fea2646970667358221220663e8a653df0a69e3ef99e26c7074f0193f0bf89507123ab3c0bbd03f407c12a64736f6c634300080d0033",
					"opcodes": "PUSH1 0x80 PUSH1 0x40 MSTORE CALLVALUE DUP1 ISZERO PUSH2 0x10 JUMPI PUSH1 0x0 DUP1 REVERT JUMPDEST POP PUSH2 0x2C1 DUP1 PUSH2 0x20 PUSH1 0x0 CODECOPY PUSH1 0x0 RETURN INVALID PUSH1 0x80 PUSH1 0x40 MSTORE CALLVALUE DUP1 ISZERO PUSH2 0x10 JUMPI PUSH1 0x0 DUP1 REVERT JUMPDEST POP PUSH1 0x4 CALLDATASIZE LT PUSH2 0x2B JUMPI PUSH1 0x0 CALLDATALOAD PUSH1 0xE0 SHR DUP1 PUSH4 0x5EC01E4D EQ PUSH2 0x30 JUMPI JUMPDEST PUSH1 0x0 DUP1 REVERT JUMPDEST PUSH2 0x38 PUSH2 0x4E JUMP JUMPDEST PUSH1 0x40 MLOAD PUSH2 0x45 SWAP2 SWAP1 PUSH2 0xC1 JUMP JUMPDEST PUSH1 0x40 MLOAD DUP1 SWAP2 SUB SWAP1 RETURN JUMPDEST PUSH1 0x0 DUP1 PUSH1 0x0 DUP2 SLOAD DUP1 SWAP3 SWAP2 SWAP1 PUSH2 0x62 SWAP1 PUSH2 0x10B JUMP JUMPDEST SWAP2 SWAP1 POP SSTORE POP PUSH1 0x64 TIMESTAMP CALLER PUSH1 0x0 SLOAD PUSH1 0x40 MLOAD PUSH1 0x20 ADD PUSH2 0x80 SWAP4 SWAP3 SWAP2 SWAP1 PUSH2 0x1EE JUMP JUMPDEST PUSH1 0x40 MLOAD PUSH1 0x20 DUP2 DUP4 SUB SUB DUP2 MSTORE SWAP1 PUSH1 0x40 MSTORE DUP1 MLOAD SWAP1 PUSH1 0x20 ADD KECCAK256 PUSH1 0x0 SHR PUSH2 0xA3 SWAP2 SWAP1 PUSH2 0x25A JUMP JUMPDEST SWAP1 POP SWAP1 JUMP JUMPDEST PUSH1 0x0 DUP2 SWAP1 POP SWAP2 SWAP1 POP JUMP JUMPDEST PUSH2 0xBB DUP2 PUSH2 0xA8 JUMP JUMPDEST DUP3 MSTORE POP POP JUMP JUMPDEST PUSH1 0x0 PUSH1 0x20 DUP3 ADD SWAP1 POP PUSH2 0xD6 PUSH1 0x0 DUP4 ADD DUP5 PUSH2 0xB2 JUMP JUMPDEST SWAP3 SWAP2 POP POP JUMP JUMPDEST PUSH32 0x4E487B7100000000000000000000000000000000000000000000000000000000 PUSH1 0x0 MSTORE PUSH1 0x11 PUSH1 0x4 MSTORE PUSH1 0x24 PUSH1 0x0 REVERT JUMPDEST PUSH1 0x0 PUSH2 0x116 DUP3 PUSH2 0xA8 JUMP JUMPDEST SWAP2 POP PUSH32 0xFFFFFFFFFFFFFFFFFFFFFFFFFFFFFFFFFFFFFFFFFFFFFFFFFFFFFFFFFFFFFFFF DUP3 SUB PUSH2 0x148 JUMPI PUSH2 0x147 PUSH2 0xDC JUMP JUMPDEST JUMPDEST PUSH1 0x1 DUP3 ADD SWAP1 POP SWAP2 SWAP1 POP JUMP JUMPDEST PUSH1 0x0 DUP2 SWAP1 POP SWAP2 SWAP1 POP JUMP JUMPDEST PUSH2 0x16E PUSH2 0x169 DUP3 PUSH2 0xA8 JUMP JUMPDEST PUSH2 0x153 JUMP JUMPDEST DUP3 MSTORE POP POP JUMP JUMPDEST PUSH1 0x0 PUSH20 0xFFFFFFFFFFFFFFFFFFFFFFFFFFFFFFFFFFFFFFFF DUP3 AND SWAP1 POP SWAP2 SWAP1 POP JUMP JUMPDEST PUSH1 0x0 PUSH2 0x19F DUP3 PUSH2 0x174 JUMP JUMPDEST SWAP1 POP SWAP2 SWAP1 POP JUMP JUMPDEST PUSH1 0x0 DUP2 PUSH1 0x60 SHL SWAP1 POP SWAP2 SWAP1 POP JUMP JUMPDEST PUSH1 0x0 PUSH2 0x1BE DUP3 PUSH2 0x1A6 JUMP JUMPDEST SWAP1 POP SWAP2 SWAP1 POP JUMP JUMPDEST PUSH1 0x0 PUSH2 0x1D0 DUP3 PUSH2 0x1B3 JUMP JUMPDEST SWAP1 POP SWAP2 SWAP1 POP JUMP JUMPDEST PUSH2 0x1E8 PUSH2 0x1E3 DUP3 PUSH2 0x194 JUMP JUMPDEST PUSH2 0x1C5 JUMP JUMPDEST DUP3 MSTORE POP POP JUMP JUMPDEST PUSH1 0x0 PUSH2 0x1FA DUP3 DUP7 PUSH2 0x15D JUMP JUMPDEST PUSH1 0x20 DUP3 ADD SWAP2 POP PUSH2 0x20A DUP3 DUP6 PUSH2 0x1D7 JUMP JUMPDEST PUSH1 0x14 DUP3 ADD SWAP2 POP PUSH2 0x21A DUP3 DUP5 PUSH2 0x15D JUMP JUMPDEST PUSH1 0x20 DUP3 ADD SWAP2 POP DUP2 SWAP1 POP SWAP5 SWAP4 POP POP POP POP JUMP JUMPDEST PUSH32 0x4E487B7100000000000000000000000000000000000000000000000000000000 PUSH1 0x0 MSTORE PUSH1 0x12 PUSH1 0x4 MSTORE PUSH1 0x24 PUSH1 0x0 REVERT JUMPDEST PUSH1 0x0 PUSH2 0x265 DUP3 PUSH2 0xA8 JUMP JUMPDEST SWAP2 POP PUSH2 0x270 DUP4 PUSH2 0xA8 JUMP JUMPDEST SWAP3 POP DUP3 PUSH2 0x280 JUMPI PUSH2 0x27F PUSH2 0x22B JUMP JUMPDEST JUMPDEST DUP3 DUP3 MOD SWAP1 POP SWAP3 SWAP2 POP POP JUMP INVALID LOG2 PUSH5 0x6970667358 0x22 SLT KECCAK256 PUSH7 0x3E8A653DF0A69E RETURNDATACOPY 0xF9 SWAP15 0x26 0xC7 SMOD 0x4F ADD SWAP4 CREATE 0xBF DUP10 POP PUSH18 0x23AB3C0BBD03F407C12A64736F6C63430008 0xD STOP CALLER "
				},
				"gasEstimates": {
					"creation": {
						"codeDepositCost": "141000",
						"executionCost": "190",
						"totalCost": "141190"
					},
					"external": {
						"random()": "infinite"
					}
				},
				"methodIdentifiers": {
					"random()": "5ec01e4d"
				}
			},
			"storageLayout": {
				"storage": [
					{
						"astId": 3,
						"contract": "contracts/Random.sol:Random",
						"label": "nonce",
						"offset": 0,
						"slot": "0",
						"type": "t_uint256"
					}
				],
				"types": {
					"t_uint256": {
						"encoding": "inplace",
						"label": "uint256",
						"numberOfBytes": "32"
					}
				}
			},
			"userdoc": {
				"kind": "user",
				"methods": {},
				"version": 1
			}
		}
	}
}