{
  "contractName": "SimpleStorage",
  "abi": [
    {
      "anonymous": false,
      "inputs": [
        {
          "indexed": false,
          "internalType": "string",
          "name": "_val",
          "type": "string"
        }
      ],
      "name": "greetChanged",
      "type": "event"
    },
    {
      "anonymous": false,
      "inputs": [
        {
          "indexed": false,
          "internalType": "uint256",
          "name": "_val",
          "type": "uint256"
        }
      ],
      "name": "valueChanged",
      "type": "event"
    },
    {
      "inputs": [],
      "name": "read",
      "outputs": [
        {
          "internalType": "uint256",
          "name": "",
          "type": "uint256"
        }
      ],
      "stateMutability": "view",
      "type": "function",
      "constant": true
    },
    {
      "inputs": [
        {
          "internalType": "uint256",
          "name": "newValue",
          "type": "uint256"
        }
      ],
      "name": "write",
      "outputs": [],
      "stateMutability": "nonpayable",
      "type": "function"
    },
    {
      "inputs": [],
      "name": "greet",
      "outputs": [
        {
          "internalType": "string",
          "name": "",
          "type": "string"
        }
      ],
      "stateMutability": "view",
      "type": "function",
      "constant": true
    },
    {
      "inputs": [
        {
          "internalType": "string",
          "name": "_greet",
          "type": "string"
        }
      ],
      "name": "setGreeter",
      "outputs": [],
      "stateMutability": "nonpayable",
      "type": "function"
    }
  ],
  "bytecode": "0x608060405234801561001057600080fd5b50610797806100206000396000f3fe608060405234801561001057600080fd5b506004361061004c5760003560e01c8063190663e4146100515780632f048afa1461006d57806357de26a414610089578063cfae3217146100a7575b600080fd5b61006b6004803603810190610066919061025f565b6100c5565b005b610087600480360381019061008291906102e2565b610114565b005b610091610155565b60405161009e919061031e565b60405180910390f35b6100af61015e565b6040516100bc91906103c9565b60405180910390f35b8181600191826100d6929190610631565b507f27d7722e54cde89b902fcca3d5be1b17794f2ba2d039b44e7d7bd7f381fef1dd828260405161010892919061073d565b60405180910390a15050565b806000819055507fc0dd44d3f117c96295a84b2eb7b3f6abe929928d111b030bfb3568f5efa0ff1f8160405161014a919061031e565b60405180910390a150565b60008054905090565b60606001805461016d90610454565b80601f016020809104026020016040519081016040528092919081815260200182805461019990610454565b80156101e65780601f106101bb576101008083540402835291602001916101e6565b820191906000526020600020905b8154815290600101906020018083116101c957829003601f168201915b5050505050905090565b600080fd5b600080fd5b600080fd5b600080fd5b600080fd5b60008083601f84011261021f5761021e6101fa565b5b8235905067ffffffffffffffff81111561023c5761023b6101ff565b5b60208301915083600182028301111561025857610257610204565b5b9250929050565b60008060208385031215610276576102756101f0565b5b600083013567ffffffffffffffff811115610294576102936101f5565b5b6102a085828601610209565b92509250509250929050565b6000819050919050565b6102bf816102ac565b81146102ca57600080fd5b50565b6000813590506102dc816102b6565b92915050565b6000602082840312156102f8576102f76101f0565b5b6000610306848285016102cd565b91505092915050565b610318816102ac565b82525050565b6000602082019050610333600083018461030f565b92915050565b600081519050919050565b600082825260208201905092915050565b60005b83811015610373578082015181840152602081019050610358565b60008484015250505050565b6000601f19601f8301169050919050565b600061039b82610339565b6103a58185610344565b93506103b5818560208601610355565b6103be8161037f565b840191505092915050565b600060208201905081810360008301526103e38184610390565b905092915050565b600082905092915050565b7f4e487b7100000000000000000000000000000000000000000000000000000000600052604160045260246000fd5b7f4e487b7100000000000000000000000000000000000000000000000000000000600052602260045260246000fd5b6000600282049050600182168061046c57607f821691505b60208210810361047f5761047e610425565b5b50919050565b60008190508160005260206000209050919050565b60006020601f8301049050919050565b600082821b905092915050565b6000600883026104e77fffffffffffffffffffffffffffffffffffffffffffffffffffffffffffffffff826104aa565b6104f186836104aa565b95508019841693508086168417925050509392505050565b6000819050919050565b600061052e610529610524846102ac565b610509565b6102ac565b9050919050565b6000819050919050565b61054883610513565b61055c61055482610535565b8484546104b7565b825550505050565b600090565b610571610564565b61057c81848461053f565b505050565b5b818110156105a057610595600082610569565b600181019050610582565b5050565b601f8211156105e5576105b681610485565b6105bf8461049a565b810160208510156105ce578190505b6105e26105da8561049a565b830182610581565b50505b505050565b600082821c905092915050565b6000610608600019846008026105ea565b1980831691505092915050565b600061062183836105f7565b9150826002028217905092915050565b61063b83836103eb565b67ffffffffffffffff811115610654576106536103f6565b5b61065e8254610454565b6106698282856105a4565b6000601f8311600181146106985760008415610686578287013590505b6106908582610615565b8655506106f8565b601f1984166106a686610485565b60005b828110156106ce578489013582556001820191506020850194506020810190506106a9565b868310156106eb57848901356106e7601f8916826105f7565b8355505b6001600288020188555050505b50505050505050565b82818337600083830152505050565b600061071c8385610344565b9350610729838584610701565b6107328361037f565b840190509392505050565b60006020820190508181036000830152610758818486610710565b9050939250505056fea2646970667358221220d5ed9c534f634b8a04dbe366d5d6ee3102145dd91af95241e8a5caa4131b894b64736f6c63430008120033",
  "immutableReferences": {},
  "source": "// SPDX-License-Identifier: MIT\npragma solidity >=0.4.22 <0.9.0;\n\ncontract SimpleStorage {\n  uint256 value;\n  string greeter;\n\n  event valueChanged(uint _val);\n  event greetChanged(string _val);\n\n  function read() public view returns (uint256) {\n    return value;\n  }\n\n  function write(uint256 newValue) public {\n    value = newValue;\n    emit valueChanged(newValue);\n  }\n  \n  function greet() public view returns (string memory) {\n    return greeter;\n  }\n\n  function setGreeter(string calldata _greet) public {\n    greeter = _greet;\n    emit greetChanged(_greet);\n  }\n  \n}\n",
  "sourcePath": "/home/qmoreaux/Alyra/Git/6. Dapp/simple-storage-react/truffle/contracts/SimpleStorage.sol",
  "compiler": {
    "name": "solc",
    "version": "0.8.18+commit.87f61d96.Emscripten.clang"
  },
  "schemaVersion": "3.4.11",
  "updatedAt": "2023-03-05T20:28:47.851Z",
  "networkType": "ethereum",
  "devdoc": {
    "kind": "dev",
    "methods": {},
    "version": 1
  },
  "userdoc": {
    "kind": "user",
    "methods": {},
    "version": 1
  }
}